{
  "contractName": "VeritIdentityTable",
  "abi": [
    {
      "inputs": [],
      "stateMutability": "nonpayable",
      "type": "constructor"
    },
    {
      "anonymous": false,
      "inputs": [
        {
          "indexed": true,
          "internalType": "address",
          "name": "_address",
          "type": "address"
        },
        {
          "indexed": false,
          "internalType": "string",
          "name": "platformIdentifier",
          "type": "string"
        },
        {
          "indexed": false,
          "internalType": "string",
          "name": "platformHandle",
          "type": "string"
        }
      ],
      "name": "Attest",
      "type": "event"
    },
    {
      "anonymous": false,
      "inputs": [
        {
          "indexed": true,
          "internalType": "address",
          "name": "_address",
          "type": "address"
        },
        {
          "indexed": false,
          "internalType": "string",
          "name": "userType",
          "type": "string"
        }
      ],
      "name": "Register",
      "type": "event"
    },
    {
      "inputs": [
        {
          "internalType": "address",
          "name": "_signer",
          "type": "address"
        },
        {
          "internalType": "bytes32",
          "name": "messageHash",
          "type": "bytes32"
        },
        {
          "internalType": "bytes",
          "name": "signature",
          "type": "bytes"
        }
      ],
      "name": "verifySign",
      "outputs": [
        {
          "internalType": "bool",
          "name": "",
          "type": "bool"
        }
      ],
      "stateMutability": "pure",
      "type": "function",
      "constant": true
    },
    {
      "inputs": [
        {
          "internalType": "address",
          "name": "senderAddress",
          "type": "address"
        }
      ],
      "name": "getUserAddress",
      "outputs": [
        {
          "internalType": "address",
          "name": "userAddress",
          "type": "address"
        }
      ],
      "stateMutability": "view",
      "type": "function",
      "constant": true
    },
    {
      "inputs": [
        {
          "internalType": "address",
          "name": "senderAddress",
          "type": "address"
        },
        {
          "internalType": "string",
          "name": "platformIdentifier",
          "type": "string"
        }
      ],
      "name": "getPlatformHandleHash",
      "outputs": [
        {
          "internalType": "bytes32",
          "name": "platformHandleHash",
          "type": "bytes32"
        }
      ],
      "stateMutability": "view",
      "type": "function",
      "constant": true
    },
    {
      "inputs": [
        {
          "internalType": "string",
          "name": "userType",
          "type": "string"
        },
        {
          "components": [
            {
              "internalType": "string",
              "name": "platformIdentifier",
              "type": "string"
            },
            {
              "internalType": "string",
              "name": "platformURL",
              "type": "string"
            },
            {
              "internalType": "bytes",
              "name": "signature",
              "type": "bytes"
            },
            {
              "internalType": "string",
              "name": "platformHandle",
              "type": "string"
            }
          ],
          "internalType": "struct VeritIdentityTable.Attestation[]",
          "name": "attestations",
          "type": "tuple[]"
        },
        {
          "internalType": "bytes",
          "name": "signature",
          "type": "bytes"
        }
      ],
      "name": "registerAddress",
      "outputs": [
        {
          "internalType": "bool",
          "name": "added",
          "type": "bool"
        }
      ],
      "stateMutability": "nonpayable",
      "type": "function"
    },
    {
      "inputs": [
        {
          "components": [
            {
              "internalType": "string",
              "name": "platformIdentifier",
              "type": "string"
            },
            {
              "internalType": "string",
              "name": "platformURL",
              "type": "string"
            },
            {
              "internalType": "bytes",
              "name": "signature",
              "type": "bytes"
            },
            {
              "internalType": "string",
              "name": "platformHandle",
              "type": "string"
            }
          ],
          "internalType": "struct VeritIdentityTable.Attestation",
          "name": "attestation",
          "type": "tuple"
        }
      ],
      "name": "addAttestation",
      "outputs": [
        {
          "internalType": "bool",
          "name": "attested",
          "type": "bool"
        }
      ],
      "stateMutability": "nonpayable",
      "type": "function"
    }
  ],
  "bytecode": "0x608060405234801561001057600080fd5b5073a71a9aee3b0d8027e7a654aa7ddf8a3d882c64f5600160006101000a81548173ffffffffffffffffffffffffffffffffffffffff021916908373ffffffffffffffffffffffffffffffffffffffff160217905550611621806100756000396000f3fe608060405234801561001057600080fd5b50600436106100575760003560e01c80634d6849d21461005c578063c528d8471461008c578063d2deaa65146100bc578063e44d37c7146100ec578063f32862bc1461011c575b600080fd5b61007660048036038101906100719190610bd8565b61014c565b604051610083919061107a565b60405180910390f35b6100a660048036038101906100a19190610c05565b6101b7565b6040516100b39190611095565b60405180910390f35b6100d660048036038101906100d19190610c74565b610207565b6040516100e391906110b0565b60405180910390f35b61010660048036038101906101019190610cd0565b610297565b6040516101139190611095565b60405180910390f35b61013660048036038101906101319190610d77565b6104ac565b6040516101439190611095565b60405180910390f35b60008060008373ffffffffffffffffffffffffffffffffffffffff1673ffffffffffffffffffffffffffffffffffffffff16815260200190815260200160002060020160009054906101000a900473ffffffffffffffffffffffffffffffffffffffff169050919050565b6000806101c3846106fa565b90508473ffffffffffffffffffffffffffffffffffffffff166101e6828561072a565b73ffffffffffffffffffffffffffffffffffffffff16149150509392505050565b60008060008473ffffffffffffffffffffffffffffffffffffffff1673ffffffffffffffffffffffffffffffffffffffff168152602001908152602001600020600001826040516102589190610fc2565b90815260200160405180910390206003016040516020016102799190610fd9565b60405160208183030381529060405280519060200120905092915050565b6000803390506000816040516020016102b09190611054565b60405160208183030381529060405280519060200120905060006102f7600160009054906101000a900473ffffffffffffffffffffffffffffffffffffffff1683876101b7565b90508061030a57600093505050506104a5565b60008060008573ffffffffffffffffffffffffffffffffffffffff1673ffffffffffffffffffffffffffffffffffffffff16815260200190815260200160002090508373ffffffffffffffffffffffffffffffffffffffff168160020160009054906101000a900473ffffffffffffffffffffffffffffffffffffffff1673ffffffffffffffffffffffffffffffffffffffff1614156103b15760009450505050506104a5565b878160010190805190602001906103c9929190610801565b50838160020160006101000a81548173ffffffffffffffffffffffffffffffffffffffff021916908373ffffffffffffffffffffffffffffffffffffffff16021790555060005b875181101561044e5761043c88828151811061042f5761042e611451565b5b60200260200101516104ac565b50806104479061137c565b9050610410565b508373ffffffffffffffffffffffffffffffffffffffff167f6ba0831d2f62ae5cbf7214bcc1d79c5da1d705f12811efda0beaa840006f874e896040516104959190611110565b60405180910390a2819450505050505b9392505050565b6000803390508073ffffffffffffffffffffffffffffffffffffffff166000808373ffffffffffffffffffffffffffffffffffffffff1673ffffffffffffffffffffffffffffffffffffffff16815260200190815260200160002060020160009054906101000a900473ffffffffffffffffffffffffffffffffffffffff1673ffffffffffffffffffffffffffffffffffffffff16146105505760009150506106f5565b6000836060015182604051602001610569929190611016565b60405160208183030381529060405280519060200120905060006105b4600160009054906101000a900473ffffffffffffffffffffffffffffffffffffffff168387604001516101b7565b905080156106ee57846000808573ffffffffffffffffffffffffffffffffffffffff1673ffffffffffffffffffffffffffffffffffffffff16815260200190815260200160002060000186600001516040516106109190610fc2565b9081526020016040518091039020600082015181600001908051906020019061063a929190610801565b506020820151816001019080519060200190610657929190610801565b506040820151816002019080519060200190610674929190610887565b506060820151816003019080519060200190610691929190610801565b509050508273ffffffffffffffffffffffffffffffffffffffff167f744c1f651933f905ca958e0cfd4c724a27acbf4430058094fbd678bff2d5b692866000015187606001516040516106e5929190611132565b60405180910390a25b8093505050505b919050565b60008160405160200161070d9190610ff0565b604051602081830303815290604052805190602001209050919050565b60008060008061073985610799565b9250925092506001868285856040516000815260200160405260405161076294939291906110cb565b6020604051602081039080840390855afa158015610784573d6000803e3d6000fd5b50505060206040510351935050505092915050565b600080600060418451146107e2576040517f08c379a00000000000000000000000000000000000000000000000000000000081526004016107d990611169565b60405180910390fd5b6020840151925060408401519150606084015160001a90509193909250565b82805461080d90611319565b90600052602060002090601f01602090048101928261082f5760008555610876565b82601f1061084857805160ff1916838001178555610876565b82800160010185558215610876579182015b8281111561087557825182559160200191906001019061085a565b5b509050610883919061090d565b5090565b82805461089390611319565b90600052602060002090601f0160209004810192826108b557600085556108fc565b82601f106108ce57805160ff19168380011785556108fc565b828001600101855582156108fc579182015b828111156108fb5782518255916020019190600101906108e0565b5b509050610909919061090d565b5090565b5b8082111561092657600081600090555060010161090e565b5090565b600061093d610938846111ae565b611189565b905080838252602082019050828560208602820111156109605761095f6114be565b5b60005b858110156109ae57813567ffffffffffffffff811115610986576109856114af565b5b8086016109938982610af0565b85526020850194506020840193505050600181019050610963565b5050509392505050565b60006109cb6109c6846111da565b611189565b9050828152602081018484840111156109e7576109e66114c3565b5b6109f28482856112d7565b509392505050565b6000610a0d610a088461120b565b611189565b905082815260208101848484011115610a2957610a286114c3565b5b610a348482856112d7565b509392505050565b600081359050610a4b816115bd565b92915050565b600082601f830112610a6657610a656114af565b5b8135610a7684826020860161092a565b91505092915050565b600081359050610a8e816115d4565b92915050565b600082601f830112610aa957610aa86114af565b5b8135610ab98482602086016109b8565b91505092915050565b600082601f830112610ad757610ad66114af565b5b8135610ae78482602086016109fa565b91505092915050565b600060808284031215610b0657610b056114b4565b5b610b106080611189565b9050600082013567ffffffffffffffff811115610b3057610b2f6114b9565b5b610b3c84828501610ac2565b600083015250602082013567ffffffffffffffff811115610b6057610b5f6114b9565b5b610b6c84828501610ac2565b602083015250604082013567ffffffffffffffff811115610b9057610b8f6114b9565b5b610b9c84828501610a94565b604083015250606082013567ffffffffffffffff811115610bc057610bbf6114b9565b5b610bcc84828501610ac2565b60608301525092915050565b600060208284031215610bee57610bed6114cd565b5b6000610bfc84828501610a3c565b91505092915050565b600080600060608486031215610c1e57610c1d6114cd565b5b6000610c2c86828701610a3c565b9350506020610c3d86828701610a7f565b925050604084013567ffffffffffffffff811115610c5e57610c5d6114c8565b5b610c6a86828701610a94565b9150509250925092565b60008060408385031215610c8b57610c8a6114cd565b5b6000610c9985828601610a3c565b925050602083013567ffffffffffffffff811115610cba57610cb96114c8565b5b610cc685828601610ac2565b9150509250929050565b600080600060608486031215610ce957610ce86114cd565b5b600084013567ffffffffffffffff811115610d0757610d066114c8565b5b610d1386828701610ac2565b935050602084013567ffffffffffffffff811115610d3457610d336114c8565b5b610d4086828701610a51565b925050604084013567ffffffffffffffff811115610d6157610d606114c8565b5b610d6d86828701610a94565b9150509250925092565b600060208284031215610d8d57610d8c6114cd565b5b600082013567ffffffffffffffff811115610dab57610daa6114c8565b5b610db784828501610af0565b91505092915050565b610dc981611278565b82525050565b610de0610ddb82611278565b6113c5565b82525050565b610def8161128a565b82525050565b610dfe81611296565b82525050565b610e15610e1082611296565b6113d7565b82525050565b6000610e2682611251565b610e30818561125c565b9350610e408185602086016112e6565b610e49816114d2565b840191505092915050565b6000610e5f82611251565b610e69818561126d565b9350610e798185602086016112e6565b80840191505092915050565b60008154610e9281611319565b610e9c818661126d565b94506001821660008114610eb75760018114610ec857610efb565b60ff19831686528186019350610efb565b610ed18561123c565b60005b83811015610ef357815481890152600182019150602081019050610ed4565b838801955050505b50505092915050565b6000610f1160018361126d565b9150610f1c826114f0565b600182019050919050565b6000610f34601c8361126d565b9150610f3f82611519565b601c82019050919050565b6000610f57601b8361126d565b9150610f6282611542565b601b82019050919050565b6000610f7a60188361125c565b9150610f858261156b565b602082019050919050565b6000610f9d601c8361126d565b9150610fa882611594565b601c82019050919050565b610fbc816112ca565b82525050565b6000610fce8284610e54565b915081905092915050565b6000610fe58284610e85565b915081905092915050565b6000610ffb82610f27565b91506110078284610e04565b60208201915081905092915050565b600061102182610f4a565b915061102d8285610e54565b915061103882610f04565b91506110448284610dcf565b6014820191508190509392505050565b600061105f82610f90565b915061106b8284610dcf565b60148201915081905092915050565b600060208201905061108f6000830184610dc0565b92915050565b60006020820190506110aa6000830184610de6565b92915050565b60006020820190506110c56000830184610df5565b92915050565b60006080820190506110e06000830187610df5565b6110ed6020830186610fb3565b6110fa6040830185610df5565b6111076060830184610df5565b95945050505050565b6000602082019050818103600083015261112a8184610e1b565b905092915050565b6000604082019050818103600083015261114c8185610e1b565b905081810360208301526111608184610e1b565b90509392505050565b6000602082019050818103600083015261118281610f6d565b9050919050565b60006111936111a4565b905061119f828261134b565b919050565b6000604051905090565b600067ffffffffffffffff8211156111c9576111c8611480565b5b602082029050602081019050919050565b600067ffffffffffffffff8211156111f5576111f4611480565b5b6111fe826114d2565b9050602081019050919050565b600067ffffffffffffffff82111561122657611225611480565b5b61122f826114d2565b9050602081019050919050565b60008190508160005260206000209050919050565b600081519050919050565b600082825260208201905092915050565b600081905092915050565b6000611283826112a0565b9050919050565b60008115159050919050565b6000819050919050565b600073ffffffffffffffffffffffffffffffffffffffff82169050919050565b6000819050919050565b600060ff82169050919050565b82818337600083830152505050565b60005b838110156113045780820151818401526020810190506112e9565b83811115611313576000848401525b50505050565b6000600282049050600182168061133157607f821691505b6020821081141561134557611344611422565b5b50919050565b611354826114d2565b810181811067ffffffffffffffff8211171561137357611372611480565b5b80604052505050565b6000611387826112c0565b91507fffffffffffffffffffffffffffffffffffffffffffffffffffffffffffffffff8214156113ba576113b96113f3565b5b600182019050919050565b60006113d0826113e1565b9050919050565b6000819050919050565b60006113ec826114e3565b9050919050565b7f4e487b7100000000000000000000000000000000000000000000000000000000600052601160045260246000fd5b7f4e487b7100000000000000000000000000000000000000000000000000000000600052602260045260246000fd5b7f4e487b7100000000000000000000000000000000000000000000000000000000600052603260045260246000fd5b7f4e487b7100000000000000000000000000000000000000000000000000000000600052604160045260246000fd5b600080fd5b600080fd5b600080fd5b600080fd5b600080fd5b600080fd5b600080fd5b6000601f19601f8301169050919050565b60008160601b9050919050565b7f0a00000000000000000000000000000000000000000000000000000000000000600082015250565b7f19457468657265756d205369676e6564204d6573736167653a0a333200000000600082015250565b7f566572697420506c6174666f726d204174746573746174696f6e0a0000000000600082015250565b7f696e76616c6964207369676e6174757265206c656e6774680000000000000000600082015250565b7f566572697420506c6174666f726d20526567697374726174696f6e0a00000000600082015250565b6115c681611278565b81146115d157600080fd5b50565b6115dd81611296565b81146115e857600080fd5b5056fea264697066735822122053e62b18ebcf411f0e0d175112512cda3cd71ba425ed5b8cd31f7359654de37a64736f6c63430008050033",
  "immutableReferences": {},
  "source": "// SPDX-License-Identifier: MIT\npragma solidity ^0.8.0;\n\ncontract VeritIdentityTable {\n    \n    // Structure for storing the attestations\n    struct Attestation {\n        string platformIdentifier;\n        string platformURL;\n        bytes signature;\n        string platformHandle;\n    }\n    \n    // Structure for storing User information\n    struct User {\n        mapping (string => Attestation) attestations; // maps from platformIdentifier to Attestation.\n        string userType;\n        address userAddress;\n    }\n    \n    mapping (address => User) users; // maps from userAddress to User\n    \n    address private owner; // Currently is hardcoded to store an address representing Twitter's Blockchain address\n    \n    event Register(address indexed _address, string userType);\n    event Attest(address indexed _address, string platformIdentifier, string platformHandle);\n    // event ErrorLog(string reason);\n    \n    modifier isOwner() { // modifier (might come in handy later)\n        \n        require(msg.sender == owner, \"Caller is not owner\");\n        _;\n    }\n    \n    constructor() {\n        \n        owner = 0xA71A9AEe3b0d8027e7A654aA7ddf8a3D882C64F5; // hardcoded temporary public key\n    }\n  \n    // Internal functions for sign verification using ecrecover and keccak256.\n    // To get the correct sign in web3, follow the instructions as in the bottom of the contract\n    \n    function getEthSignedMessageHash(bytes32 _messageHash) pure internal returns (bytes32) {\n\n        return keccak256(abi.encodePacked(\"\\x19Ethereum Signed Message:\\n32\", _messageHash));\n    }\n\n    function recoverSigner(bytes32 _ethSignedMessageHash, bytes memory _signature) pure internal returns (address) {\n        \n        (bytes32 r, bytes32 s, uint8 v) = splitSignature(_signature);\n        return ecrecover(_ethSignedMessageHash, v, r, s);\n    }\n\n    function splitSignature(bytes memory sig) pure internal returns (bytes32 r, bytes32 s, uint8 v) {\n        require(sig.length == 65, \"invalid signature length\");\n\n        assembly {\n            // first 32 bytes, after the length prefix\n            r := mload(add(sig, 32))\n            // second 32 bytes\n            s := mload(add(sig, 64))\n            // final byte (first byte of the next 32 bytes)\n            v := byte(0, mload(add(sig, 96)))\n        }\n\n        // implicitly return (r, s, v)\n    }\n    \n    function verifySign ( address _signer, bytes32 messageHash , bytes memory signature) public pure returns (bool) {\n        \n        bytes32 ethSignedMessageHash = getEthSignedMessageHash(messageHash);\n        return recoverSigner(ethSignedMessageHash, signature) == _signer;\n    }\n    \n    function getUserAddress (address senderAddress) public view returns (address userAddress) {\n        \n        return users[senderAddress].userAddress;\n    }\n    \n    function getPlatformHandleHash (address senderAddress, string memory platformIdentifier) public view returns (bytes32 platformHandleHash) {\n        \n        return keccak256(abi.encodePacked(users[senderAddress].attestations[platformIdentifier].platformHandle));\n    }\n    \n    \n    // Add an address to the mapping\n    // The address is taken from msg.sender\n    function registerAddress (string memory userType, Attestation[] memory attestations, bytes memory signature) public returns (bool added) {\n        \n        address _address = msg.sender;\n        bytes32 messageHash = keccak256(abi.encodePacked(\"Verit Platform Registration\\n\", _address)); // Hash used for sign\n        bool verify = verifySign(owner, messageHash, signature); // verify signature\n        if(!verify) {\n            // emit ErrorLog(\"Signature verification failed\");\n            return false;\n        }\n\n        User storage user = users[_address];\n        \n        if(user.userAddress == _address){ // If address already has a mapping, then it can not be directly modified, only attestations can be added\n            // emit ErrorLog(\"This address has already been mapped to\");\n            return false;\n        }\n        \n        user.userType = userType;\n        user.userAddress = _address;\n        \n        // add Attestations to the address\n        for(uint i = 0; i < attestations.length; ++i) {\n            addAttestation(attestations[i]);\n        }\n        \n        emit Register(_address, userType);\n        return verify;\n    }\n    \n    // function to add attestations to a given address. Can be called from regiserAddress and also on it own\n    // the address is taken from msg.sender\n    function addAttestation (Attestation memory attestation) public returns (bool attested) {\n    \n        address _address = msg.sender;\n        if(users[_address].userAddress != _address) {\n            // emit ErrorLog(\"Address not registered\");\n            return false;\n        } // Allow only registered addresses to add Attestations.\n            \n        \n        bytes32 messageHash = keccak256(abi.encodePacked(\"Verit Platform Attestation\\n\", attestation.platformHandle, \"\\n\", _address)); // Hash used for sign\n        bool verify = verifySign(owner, messageHash, attestation.signature); // verify signature\n        if(verify)\n        {\n            users[_address].attestations[attestation.platformIdentifier] = attestation;\n            emit Attest(_address, attestation.platformIdentifier, attestation.platformHandle);\n        }\n        // else\n            // emit ErrorLog(\"Incorrect attestation signature\");\n        return verify;\n    }\n}\n\n/*\nmessage hash:\nweb3.utils.keccak256(web3.utils.encodePacked(inputs))\nPayload:\nweb3.eth.accounts.sign(messageHash, privateKey)\nweb3.eth.accounts.sign(web3.utils.keccak256(web3.utils.encodePacked(<input>), privKey)\nprivateKey for owner: \n0xbcfbe70f344d492288500c017f0530a8ecd78766ad71d099e37e30ebc45242e2\n\nfor register: \nmessageHash = \n0xfca1c8a31656f98a5d6201c1484f8d6e666ffe4bee1297761c52a5a2aaa2c21e\naddress = \n0x5B38Da6a701c568545dCfcB03FcB875f56beddC4\nsign = \n0x0f776f643953603649fd845e2b81066e5efbcb7c42d87634deb3f4d503a871406713e9cdc0efdef8f27097c593e1d774578f3df34f9848fa0abdcd62209c3d331c\nto get sign, use:\nweb3.eth.accounts.sign(web3.utils.keccak256(web3.utils.encodePacked(\"Verit Platform Registration\\n\", _address), privKey)\n\n\n\naddress2= \n0xAb8483F64d9C6d1EcF9b849Ae677dD3315835cb2\nprivKey = \n7e5bfb82febc4c2c8529167104271ceec190eafdca277314912eaabdb67c6e5f\n\nsign for record=\n0xb8cc4a3285ebb98d7033f1ad1300cd682f72bbae48733e201ddb6080137ad89766e613940708c467a8e472ebb6f390c8a95d35d97fec7403f26235cc4b39aef71c\nuserType = \n\"user\"\nattestation = \n[\n[\"Twitter\", \"twitter.com\", \"0xc16c84364652f7b0e0b17ec3319b46110aae44865702ad3a7c85486f4b64ce3a6966a1bfe1bb41239ee151502b7281b0b82397b98d2cf28a76ecb0a1bcc57f141c\", \"atharv\"]\n]\nto get attestation sign use\nweb3.eth.accounts.sign(web3.utils.keccak256(web3.utils.encodePacked(\"Verit Platform Attestation\\n\", platformHandle + \"\\n\", _address)), privKey)\n*/",
  "sourcePath": "/d/Projects/NBP/ssi-verit/contracts/contracts/VeritIdentityTable.sol",
  "compiler": {
    "name": "solc",
    "version": "0.8.5+commit.a4f2e591.Emscripten.clang"
  },
  "schemaVersion": "3.4.1",
  "updatedAt": "2021-06-15T15:07:09.130Z",
  "networkType": "ethereum",
  "devdoc": {
    "kind": "dev",
    "methods": {},
    "version": 1
  },
  "userdoc": {
    "kind": "user",
    "methods": {},
    "version": 1
  }
}