{
  "contractName": "VeritIdentityTable",
  "abi": [
    {
      "inputs": [],
      "stateMutability": "nonpayable",
      "type": "constructor"
    },
    {
      "anonymous": false,
      "inputs": [
        {
          "indexed": false,
          "internalType": "address",
          "name": "_address",
          "type": "address"
        },
        {
          "components": [
            {
              "internalType": "string",
              "name": "platformIdentifier",
              "type": "string"
            },
            {
              "internalType": "string",
              "name": "platformURL",
              "type": "string"
            },
            {
              "internalType": "bytes",
              "name": "signature",
              "type": "bytes"
            },
            {
              "internalType": "string",
              "name": "platformHandle",
              "type": "string"
            }
          ],
          "indexed": false,
          "internalType": "struct VeritIdentityTable.Attestation",
          "name": "attestation",
          "type": "tuple"
        }
      ],
      "name": "Attest",
      "type": "event"
    },
    {
      "anonymous": false,
      "inputs": [
        {
          "indexed": false,
          "internalType": "string",
          "name": "reason",
          "type": "string"
        }
      ],
      "name": "ErrorLog",
      "type": "event"
    },
    {
      "anonymous": false,
      "inputs": [
        {
          "indexed": false,
          "internalType": "string",
          "name": "userType",
          "type": "string"
        },
        {
          "indexed": false,
          "internalType": "address",
          "name": "_address",
          "type": "address"
        },
        {
          "indexed": false,
          "internalType": "bytes",
          "name": "signature",
          "type": "bytes"
        }
      ],
      "name": "Register",
      "type": "event"
    },
    {
      "inputs": [
        {
          "internalType": "address",
          "name": "_signer",
          "type": "address"
        },
        {
          "internalType": "bytes32",
          "name": "messageHash",
          "type": "bytes32"
        },
        {
          "internalType": "bytes",
          "name": "signature",
          "type": "bytes"
        }
      ],
      "name": "verifySign",
      "outputs": [
        {
          "internalType": "bool",
          "name": "",
          "type": "bool"
        }
      ],
      "stateMutability": "pure",
      "type": "function",
      "constant": true
    },
    {
      "inputs": [
        {
          "internalType": "address",
          "name": "senderAddress",
          "type": "address"
        }
      ],
      "name": "getUserAddress",
      "outputs": [
        {
          "internalType": "address",
          "name": "userAddress",
          "type": "address"
        }
      ],
      "stateMutability": "view",
      "type": "function",
      "constant": true
    },
    {
      "inputs": [
        {
          "internalType": "address",
          "name": "senderAddress",
          "type": "address"
        },
        {
          "internalType": "string",
          "name": "platformIdentifier",
          "type": "string"
        }
      ],
      "name": "getPlatformHandleHash",
      "outputs": [
        {
          "internalType": "bytes32",
          "name": "platformHandleHash",
          "type": "bytes32"
        }
      ],
      "stateMutability": "view",
      "type": "function",
      "constant": true
    },
    {
      "inputs": [
        {
          "internalType": "string",
          "name": "userType",
          "type": "string"
        },
        {
          "components": [
            {
              "internalType": "string",
              "name": "platformIdentifier",
              "type": "string"
            },
            {
              "internalType": "string",
              "name": "platformURL",
              "type": "string"
            },
            {
              "internalType": "bytes",
              "name": "signature",
              "type": "bytes"
            },
            {
              "internalType": "string",
              "name": "platformHandle",
              "type": "string"
            }
          ],
          "internalType": "struct VeritIdentityTable.Attestation[]",
          "name": "attestations",
          "type": "tuple[]"
        },
        {
          "internalType": "bytes",
          "name": "signature",
          "type": "bytes"
        }
      ],
      "name": "registerAddress",
      "outputs": [
        {
          "internalType": "bool",
          "name": "added",
          "type": "bool"
        }
      ],
      "stateMutability": "nonpayable",
      "type": "function"
    },
    {
      "inputs": [
        {
          "components": [
            {
              "internalType": "string",
              "name": "platformIdentifier",
              "type": "string"
            },
            {
              "internalType": "string",
              "name": "platformURL",
              "type": "string"
            },
            {
              "internalType": "bytes",
              "name": "signature",
              "type": "bytes"
            },
            {
              "internalType": "string",
              "name": "platformHandle",
              "type": "string"
            }
          ],
          "internalType": "struct VeritIdentityTable.Attestation",
          "name": "attestation",
          "type": "tuple"
        }
      ],
      "name": "addAttestation",
      "outputs": [
        {
          "internalType": "bool",
          "name": "attested",
          "type": "bool"
        }
      ],
      "stateMutability": "nonpayable",
      "type": "function"
    }
  ],
  "bytecode": "0x608060405234801561001057600080fd5b5073a71a9aee3b0d8027e7a654aa7ddf8a3d882c64f5600160006101000a81548173ffffffffffffffffffffffffffffffffffffffff021916908373ffffffffffffffffffffffffffffffffffffffff160217905550611a1b806100756000396000f3fe608060405234801561001057600080fd5b50600436106100575760003560e01c80634d6849d21461005c578063c528d8471461008c578063d2deaa65146100bc578063e44d37c7146100ec578063f32862bc1461011c575b600080fd5b61007660048036038101906100719190610c7f565b61014c565b60405161008391906112d0565b60405180910390f35b6100a660048036038101906100a19190610cac565b6101b7565b6040516100b3919061131b565b60405180910390f35b6100d660048036038101906100d19190610d1b565b610207565b6040516100e39190611336565b60405180910390f35b61010660048036038101906101019190610d77565b610297565b604051610113919061131b565b60405180910390f35b61013660048036038101906101319190610e1e565b610503565b604051610143919061131b565b60405180910390f35b60008060008373ffffffffffffffffffffffffffffffffffffffff1673ffffffffffffffffffffffffffffffffffffffff16815260200190815260200160002060020160009054906101000a900473ffffffffffffffffffffffffffffffffffffffff169050919050565b6000806101c3846107a1565b90508473ffffffffffffffffffffffffffffffffffffffff166101e682856107d1565b73ffffffffffffffffffffffffffffffffffffffff16149150509392505050565b60008060008473ffffffffffffffffffffffffffffffffffffffff1673ffffffffffffffffffffffffffffffffffffffff168152602001908152602001600020600001826040516102589190611218565b9081526020016040518091039020600301604051602001610279919061122f565b60405160208183030381529060405280519060200120905092915050565b6000803390506000816040516020016102b091906112aa565b60405160208183030381529060405280519060200120905060006102f7600160009054906101000a900473ffffffffffffffffffffffffffffffffffffffff1683876101b7565b90508061033f577ffe46ad7cf507184ab42d7a2576647d779ff7bc7f831bfbead75fbe056c1adb6360405161032b9061141b565b60405180910390a1600093505050506104fc565b60008060008573ffffffffffffffffffffffffffffffffffffffff1673ffffffffffffffffffffffffffffffffffffffff16815260200190815260200160002090508373ffffffffffffffffffffffffffffffffffffffff168160020160009054906101000a900473ffffffffffffffffffffffffffffffffffffffff1673ffffffffffffffffffffffffffffffffffffffff16141561041b577ffe46ad7cf507184ab42d7a2576647d779ff7bc7f831bfbead75fbe056c1adb63604051610406906113db565b60405180910390a160009450505050506104fc565b878160010190805190602001906104339291906108a8565b50838160020160006101000a81548173ffffffffffffffffffffffffffffffffffffffff021916908373ffffffffffffffffffffffffffffffffffffffff16021790555060005b87518110156104b8576104a688828151811061049957610498611781565b5b6020026020010151610503565b50806104b1906116ac565b905061047a565b507f4f5aa5a57bec7d1576467084b9dfc16abd7a90f328e0d85ccf64b003b983e0788885886040516104ec93929190611396565b60405180910390a1819450505050505b9392505050565b6000803390508073ffffffffffffffffffffffffffffffffffffffff166000808373ffffffffffffffffffffffffffffffffffffffff1673ffffffffffffffffffffffffffffffffffffffff16815260200190815260200160002060020160009054906101000a900473ffffffffffffffffffffffffffffffffffffffff1673ffffffffffffffffffffffffffffffffffffffff16146105dc577ffe46ad7cf507184ab42d7a2576647d779ff7bc7f831bfbead75fbe056c1adb636040516105ca9061143b565b60405180910390a1600091505061079c565b60008360600151826040516020016105f592919061126c565b6040516020818303038152906040528051906020012090506000610640600160009054906101000a900473ffffffffffffffffffffffffffffffffffffffff168387604001516101b7565b9050801561075f57846000808573ffffffffffffffffffffffffffffffffffffffff1673ffffffffffffffffffffffffffffffffffffffff168152602001908152602001600020600001866000015160405161069c9190611218565b908152602001604051809103902060008201518160000190805190602001906106c69291906108a8565b5060208201518160010190805190602001906106e39291906108a8565b50604082015181600201908051906020019061070092919061092e565b50606082015181600301908051906020019061071d9291906108a8565b509050507fdaac63c290ed712d1e9873b5de6a19e1cfe614135343309b580042e2b200b83383866040516107529291906112eb565b60405180910390a1610795565b7ffe46ad7cf507184ab42d7a2576647d779ff7bc7f831bfbead75fbe056c1adb6360405161078c906113fb565b60405180910390a15b8093505050505b919050565b6000816040516020016107b49190611246565b604051602081830303815290604052805190602001209050919050565b6000806000806107e085610840565b925092509250600186828585604051600081526020016040526040516108099493929190611351565b6020604051602081039080840390855afa15801561082b573d6000803e3d6000fd5b50505060206040510351935050505092915050565b60008060006041845114610889576040517f08c379a00000000000000000000000000000000000000000000000000000000081526004016108809061145b565b60405180910390fd5b6020840151925060408401519150606084015160001a90509193909250565b8280546108b490611649565b90600052602060002090601f0160209004810192826108d6576000855561091d565b82601f106108ef57805160ff191683800117855561091d565b8280016001018555821561091d579182015b8281111561091c578251825591602001919060010190610901565b5b50905061092a91906109b4565b5090565b82805461093a90611649565b90600052602060002090601f01602090048101928261095c57600085556109a3565b82601f1061097557805160ff19168380011785556109a3565b828001600101855582156109a3579182015b828111156109a2578251825591602001919060010190610987565b5b5090506109b091906109b4565b5090565b5b808211156109cd5760008160009055506001016109b5565b5090565b60006109e46109df846114a0565b61147b565b90508083825260208201905082856020860282011115610a0757610a066117ee565b5b60005b85811015610a5557813567ffffffffffffffff811115610a2d57610a2c6117df565b5b808601610a3a8982610b97565b85526020850194506020840193505050600181019050610a0a565b5050509392505050565b6000610a72610a6d846114cc565b61147b565b905082815260208101848484011115610a8e57610a8d6117f3565b5b610a99848285611607565b509392505050565b6000610ab4610aaf846114fd565b61147b565b905082815260208101848484011115610ad057610acf6117f3565b5b610adb848285611607565b509392505050565b600081359050610af2816119b7565b92915050565b600082601f830112610b0d57610b0c6117df565b5b8135610b1d8482602086016109d1565b91505092915050565b600081359050610b35816119ce565b92915050565b600082601f830112610b5057610b4f6117df565b5b8135610b60848260208601610a5f565b91505092915050565b600082601f830112610b7e57610b7d6117df565b5b8135610b8e848260208601610aa1565b91505092915050565b600060808284031215610bad57610bac6117e4565b5b610bb7608061147b565b9050600082013567ffffffffffffffff811115610bd757610bd66117e9565b5b610be384828501610b69565b600083015250602082013567ffffffffffffffff811115610c0757610c066117e9565b5b610c1384828501610b69565b602083015250604082013567ffffffffffffffff811115610c3757610c366117e9565b5b610c4384828501610b3b565b604083015250606082013567ffffffffffffffff811115610c6757610c666117e9565b5b610c7384828501610b69565b60608301525092915050565b600060208284031215610c9557610c946117fd565b5b6000610ca384828501610ae3565b91505092915050565b600080600060608486031215610cc557610cc46117fd565b5b6000610cd386828701610ae3565b9350506020610ce486828701610b26565b925050604084013567ffffffffffffffff811115610d0557610d046117f8565b5b610d1186828701610b3b565b9150509250925092565b60008060408385031215610d3257610d316117fd565b5b6000610d4085828601610ae3565b925050602083013567ffffffffffffffff811115610d6157610d606117f8565b5b610d6d85828601610b69565b9150509250929050565b600080600060608486031215610d9057610d8f6117fd565b5b600084013567ffffffffffffffff811115610dae57610dad6117f8565b5b610dba86828701610b69565b935050602084013567ffffffffffffffff811115610ddb57610dda6117f8565b5b610de786828701610af8565b925050604084013567ffffffffffffffff811115610e0857610e076117f8565b5b610e1486828701610b3b565b9150509250925092565b600060208284031215610e3457610e336117fd565b5b600082013567ffffffffffffffff811115610e5257610e516117f8565b5b610e5e84828501610b97565b91505092915050565b610e70816115a8565b82525050565b610e87610e82826115a8565b6116f5565b82525050565b610e96816115ba565b82525050565b610ea5816115c6565b82525050565b610ebc610eb7826115c6565b611707565b82525050565b6000610ecd82611543565b610ed78185611559565b9350610ee7818560208601611616565b610ef081611802565b840191505092915050565b6000610f0682611543565b610f10818561156a565b9350610f20818560208601611616565b610f2981611802565b840191505092915050565b6000610f3f8261154e565b610f49818561157b565b9350610f59818560208601611616565b610f6281611802565b840191505092915050565b6000610f788261154e565b610f82818561158c565b9350610f92818560208601611616565b610f9b81611802565b840191505092915050565b6000610fb18261154e565b610fbb818561159d565b9350610fcb818560208601611616565b80840191505092915050565b60008154610fe481611649565b610fee818661159d565b94506001821660008114611009576001811461101a5761104d565b60ff1983168652818601935061104d565b6110238561152e565b60005b8381101561104557815481890152600182019150602081019050611026565b838801955050505b50505092915050565b600061106360018361159d565b915061106e82611820565b600182019050919050565b6000611086601c8361159d565b915061109182611849565b601c82019050919050565b60006110a960278361158c565b91506110b482611872565b604082019050919050565b60006110cc601f8361158c565b91506110d7826118c1565b602082019050919050565b60006110ef601b8361159d565b91506110fa826118ea565b601b82019050919050565b6000611112601d8361158c565b915061111d82611913565b602082019050919050565b600061113560168361158c565b91506111408261193c565b602082019050919050565b600061115860188361158c565b915061116382611965565b602082019050919050565b600061117b601c8361159d565b91506111868261198e565b601c82019050919050565b600060808301600083015184820360008601526111ae8282610f34565b915050602083015184820360208601526111c88282610f34565b915050604083015184820360408601526111e28282610ec2565b915050606083015184820360608601526111fc8282610f34565b9150508091505092915050565b611212816115fa565b82525050565b60006112248284610fa6565b915081905092915050565b600061123b8284610fd7565b915081905092915050565b600061125182611079565b915061125d8284610eab565b60208201915081905092915050565b6000611277826110e2565b91506112838285610fa6565b915061128e82611056565b915061129a8284610e76565b6014820191508190509392505050565b60006112b58261116e565b91506112c18284610e76565b60148201915081905092915050565b60006020820190506112e56000830184610e67565b92915050565b60006040820190506113006000830185610e67565b81810360208301526113128184611191565b90509392505050565b60006020820190506113306000830184610e8d565b92915050565b600060208201905061134b6000830184610e9c565b92915050565b60006080820190506113666000830187610e9c565b6113736020830186611209565b6113806040830185610e9c565b61138d6060830184610e9c565b95945050505050565b600060608201905081810360008301526113b08186610f6d565b90506113bf6020830185610e67565b81810360408301526113d18184610efb565b9050949350505050565b600060208201905081810360008301526113f48161109c565b9050919050565b60006020820190508181036000830152611414816110bf565b9050919050565b6000602082019050818103600083015261143481611105565b9050919050565b6000602082019050818103600083015261145481611128565b9050919050565b600060208201905081810360008301526114748161114b565b9050919050565b6000611485611496565b9050611491828261167b565b919050565b6000604051905090565b600067ffffffffffffffff8211156114bb576114ba6117b0565b5b602082029050602081019050919050565b600067ffffffffffffffff8211156114e7576114e66117b0565b5b6114f082611802565b9050602081019050919050565b600067ffffffffffffffff821115611518576115176117b0565b5b61152182611802565b9050602081019050919050565b60008190508160005260206000209050919050565b600081519050919050565b600081519050919050565b600082825260208201905092915050565b600082825260208201905092915050565b600082825260208201905092915050565b600082825260208201905092915050565b600081905092915050565b60006115b3826115d0565b9050919050565b60008115159050919050565b6000819050919050565b600073ffffffffffffffffffffffffffffffffffffffff82169050919050565b6000819050919050565b600060ff82169050919050565b82818337600083830152505050565b60005b83811015611634578082015181840152602081019050611619565b83811115611643576000848401525b50505050565b6000600282049050600182168061166157607f821691505b6020821081141561167557611674611752565b5b50919050565b61168482611802565b810181811067ffffffffffffffff821117156116a3576116a26117b0565b5b80604052505050565b60006116b7826115f0565b91507fffffffffffffffffffffffffffffffffffffffffffffffffffffffffffffffff8214156116ea576116e9611723565b5b600182019050919050565b600061170082611711565b9050919050565b6000819050919050565b600061171c82611813565b9050919050565b7f4e487b7100000000000000000000000000000000000000000000000000000000600052601160045260246000fd5b7f4e487b7100000000000000000000000000000000000000000000000000000000600052602260045260246000fd5b7f4e487b7100000000000000000000000000000000000000000000000000000000600052603260045260246000fd5b7f4e487b7100000000000000000000000000000000000000000000000000000000600052604160045260246000fd5b600080fd5b600080fd5b600080fd5b600080fd5b600080fd5b600080fd5b600080fd5b6000601f19601f8301169050919050565b60008160601b9050919050565b7f0a00000000000000000000000000000000000000000000000000000000000000600082015250565b7f19457468657265756d205369676e6564204d6573736167653a0a333200000000600082015250565b7f5468697320616464726573732068617320616c7265616479206265656e206d6160008201527f7070656420746f00000000000000000000000000000000000000000000000000602082015250565b7f496e636f7272656374206174746573746174696f6e207369676e617475726500600082015250565b7f566572697420506c6174666f726d204174746573746174696f6e0a0000000000600082015250565b7f5369676e617475726520766572696669636174696f6e206661696c6564000000600082015250565b7f41646472657373206e6f74207265676973746572656400000000000000000000600082015250565b7f696e76616c6964207369676e6174757265206c656e6774680000000000000000600082015250565b7f566572697420506c6174666f726d20526567697374726174696f6e0a00000000600082015250565b6119c0816115a8565b81146119cb57600080fd5b50565b6119d7816115c6565b81146119e257600080fd5b5056fea2646970667358221220137080ee0403551746491dc2d001298b18ab6cbd45b3d4996d59f96026dfe99464736f6c63430008050033",
  "immutableReferences": {},
  "source": "// SPDX-License-Identifier: MIT\npragma solidity ^0.8.0;\n\ncontract VeritIdentityTable {\n    \n    // Structure for storing the attestations\n    struct Attestation {\n        string platformIdentifier;\n        string platformURL;\n        bytes signature;\n        string platformHandle;\n    }\n    \n    // Structure for storing User information\n    struct User {\n        mapping (string => Attestation) attestations; // maps from platformIdentifier to Attestation.\n        string userType;\n        address userAddress;\n    }\n    \n    mapping (address => User) users; // maps from userAddress to User\n    \n    address private owner; // Currently is hardcoded to store an address representing Twitter's Blockchain address\n    \n    event Register(string userType, address _address, bytes signature);\n    event Attest(address _address, Attestation attestation);\n    event ErrorLog(string reason);\n    \n    modifier isOwner() { // modifier (might come in handy later)\n        \n        require(msg.sender == owner, \"Caller is not owner\");\n        _;\n    }\n    \n    constructor() {\n        \n        owner = 0xA71A9AEe3b0d8027e7A654aA7ddf8a3D882C64F5; // hardcoded temporary public key\n    }\n  \n    // Internal functions for sign verification using ecrecover and keccak256.\n    // To get the correct sign in web3, follow the instructions as in the bottom of the contract\n    \n    function getEthSignedMessageHash(bytes32 _messageHash) pure internal returns (bytes32) {\n\n        return keccak256(abi.encodePacked(\"\\x19Ethereum Signed Message:\\n32\", _messageHash));\n    }\n\n    function recoverSigner(bytes32 _ethSignedMessageHash, bytes memory _signature) pure internal returns (address) {\n        \n        (bytes32 r, bytes32 s, uint8 v) = splitSignature(_signature);\n        return ecrecover(_ethSignedMessageHash, v, r, s);\n    }\n\n    function splitSignature(bytes memory sig) pure internal returns (bytes32 r, bytes32 s, uint8 v) {\n        require(sig.length == 65, \"invalid signature length\");\n\n        assembly {\n            // first 32 bytes, after the length prefix\n            r := mload(add(sig, 32))\n            // second 32 bytes\n            s := mload(add(sig, 64))\n            // final byte (first byte of the next 32 bytes)\n            v := byte(0, mload(add(sig, 96)))\n        }\n\n        // implicitly return (r, s, v)\n    }\n    \n    function verifySign ( address _signer, bytes32 messageHash , bytes memory signature) public pure returns (bool) {\n        \n        bytes32 ethSignedMessageHash = getEthSignedMessageHash(messageHash);\n        return recoverSigner(ethSignedMessageHash, signature) == _signer;\n    }\n    \n    function getUserAddress (address senderAddress) public view returns (address userAddress) {\n        \n        return users[senderAddress].userAddress;\n    }\n    \n    function getPlatformHandleHash (address senderAddress, string memory platformIdentifier) public view returns (bytes32 platformHandleHash) {\n        \n        return keccak256(abi.encodePacked(users[senderAddress].attestations[platformIdentifier].platformHandle));\n    }\n    \n    \n    // Add an address to the mapping\n    // The address is taken from msg.sender\n    function registerAddress (string memory userType, Attestation[] memory attestations, bytes memory signature) public returns (bool added) {\n        \n        address _address = msg.sender;\n        bytes32 messageHash = keccak256(abi.encodePacked(\"Verit Platform Registration\\n\", _address)); // Hash used for sign\n        bool verify = verifySign(owner, messageHash, signature); // verify signature\n        if(!verify) {\n            emit ErrorLog(\"Signature verification failed\");\n            return false;\n        }\n\n        User storage user = users[_address];\n        \n        if(user.userAddress == _address){ // If address already has a mapping, then it can not be directly modified, only attestations can be added\n            emit ErrorLog(\"This address has already been mapped to\");\n            return false;\n        }\n        \n        user.userType = userType;\n        user.userAddress = _address;\n        \n        // add Attestations to the address\n        for(uint i = 0; i < attestations.length; ++i) {\n            addAttestation(attestations[i]);\n        }\n        \n        emit Register(userType, _address, signature);\n        return verify;\n    }\n    \n    // function to add attestations to a given address. Can be called from regiserAddress and also on it own\n    // the address is taken from msg.sender\n    function addAttestation (Attestation memory attestation) public returns (bool attested) {\n    \n        address _address = msg.sender;\n        if(users[_address].userAddress != _address) {\n            emit ErrorLog(\"Address not registered\");\n            return false;\n        } // Allow only registered addresses to add Attestations.\n            \n        \n        bytes32 messageHash = keccak256(abi.encodePacked(\"Verit Platform Attestation\\n\", attestation.platformHandle, \"\\n\", _address)); // Hash used for sign\n        bool verify = verifySign(owner, messageHash, attestation.signature); // verify signature\n        if(verify)\n        {\n            users[_address].attestations[attestation.platformIdentifier] = attestation;\n            emit Attest(_address, attestation);\n        }\n        else\n            emit ErrorLog(\"Incorrect attestation signature\");\n        return verify;\n    }\n}\n\n/*\nmessage hash:\nweb3.utils.keccak256(web3.utils.encodePacked(inputs))\nPayload:\nweb3.eth.accounts.sign(messageHash, privateKey)\nweb3.eth.accounts.sign(web3.utils.keccak256(web3.utils.encodePacked(<input>), privKey)\nprivateKey for owner: \n0xbcfbe70f344d492288500c017f0530a8ecd78766ad71d099e37e30ebc45242e2\n\nfor register: \nmessageHash = \n0xfca1c8a31656f98a5d6201c1484f8d6e666ffe4bee1297761c52a5a2aaa2c21e\naddress = \n0x5B38Da6a701c568545dCfcB03FcB875f56beddC4\nsign = \n0x0f776f643953603649fd845e2b81066e5efbcb7c42d87634deb3f4d503a871406713e9cdc0efdef8f27097c593e1d774578f3df34f9848fa0abdcd62209c3d331c\nto get sign, use:\nweb3.eth.accounts.sign(web3.utils.keccak256(web3.utils.encodePacked(\"Verit Platform Registration\\n\", _address), privKey)\n\n\n\naddress2= \n0xAb8483F64d9C6d1EcF9b849Ae677dD3315835cb2\nprivKey = \n7e5bfb82febc4c2c8529167104271ceec190eafdca277314912eaabdb67c6e5f\n\nsign for record=\n0xb8cc4a3285ebb98d7033f1ad1300cd682f72bbae48733e201ddb6080137ad89766e613940708c467a8e472ebb6f390c8a95d35d97fec7403f26235cc4b39aef71c\nuserType = \n\"user\"\nattestation = \n[\n[\"Twitter\", \"twitter.com\", \"0xc16c84364652f7b0e0b17ec3319b46110aae44865702ad3a7c85486f4b64ce3a6966a1bfe1bb41239ee151502b7281b0b82397b98d2cf28a76ecb0a1bcc57f141c\", \"atharv\"]\n]\nto get attestation sign use\nweb3.eth.accounts.sign(web3.utils.keccak256(web3.utils.encodePacked(\"Verit Platform Attestation\\n\", platformHandle + \"\\n\", _address)), privKey)\n*/",
  "sourcePath": "/d/Projects/NBP/ssi-verit/contracts/contracts/VeritIdentityTable.sol",
  "compiler": {
    "name": "solc",
    "version": "0.8.5+commit.a4f2e591.Emscripten.clang"
  },
  "schemaVersion": "3.4.1",
  "updatedAt": "2021-06-13T05:09:45.929Z",
  "networkType": "ethereum",
  "devdoc": {
    "kind": "dev",
    "methods": {},
    "version": 1
  },
  "userdoc": {
    "kind": "user",
    "methods": {},
    "version": 1
  }
}