{
  "contractName": "veritIdentityTable",
  "abi": [
    {
      "inputs": [],
      "stateMutability": "nonpayable",
      "type": "constructor"
    },
    {
      "anonymous": false,
      "inputs": [
        {
          "indexed": false,
          "internalType": "address",
          "name": "_address",
          "type": "address"
        },
        {
          "components": [
            {
              "internalType": "string",
              "name": "platformIdentifier",
              "type": "string"
            },
            {
              "internalType": "string",
              "name": "platformURL",
              "type": "string"
            },
            {
              "internalType": "bytes",
              "name": "signature",
              "type": "bytes"
            },
            {
              "internalType": "string",
              "name": "platformHandle",
              "type": "string"
            }
          ],
          "indexed": false,
          "internalType": "struct veritIdentityTable.Attestation",
          "name": "attestation",
          "type": "tuple"
        }
      ],
      "name": "Attest",
      "type": "event"
    },
    {
      "anonymous": false,
      "inputs": [
        {
          "indexed": false,
          "internalType": "string",
          "name": "userType",
          "type": "string"
        },
        {
          "indexed": false,
          "internalType": "address",
          "name": "_address",
          "type": "address"
        },
        {
          "indexed": false,
          "internalType": "bytes",
          "name": "signature",
          "type": "bytes"
        }
      ],
      "name": "Register",
      "type": "event"
    },
    {
      "inputs": [
        {
          "internalType": "string",
          "name": "userType",
          "type": "string"
        },
        {
          "internalType": "address",
          "name": "_address",
          "type": "address"
        },
        {
          "components": [
            {
              "internalType": "string",
              "name": "platformIdentifier",
              "type": "string"
            },
            {
              "internalType": "string",
              "name": "platformURL",
              "type": "string"
            },
            {
              "internalType": "bytes",
              "name": "signature",
              "type": "bytes"
            },
            {
              "internalType": "string",
              "name": "platformHandle",
              "type": "string"
            }
          ],
          "internalType": "struct veritIdentityTable.Attestation[]",
          "name": "attestations",
          "type": "tuple[]"
        },
        {
          "internalType": "bytes",
          "name": "signature",
          "type": "bytes"
        }
      ],
      "name": "registerAddress",
      "outputs": [
        {
          "internalType": "bool",
          "name": "added",
          "type": "bool"
        }
      ],
      "stateMutability": "nonpayable",
      "type": "function"
    },
    {
      "inputs": [
        {
          "internalType": "address",
          "name": "_address",
          "type": "address"
        },
        {
          "components": [
            {
              "internalType": "string",
              "name": "platformIdentifier",
              "type": "string"
            },
            {
              "internalType": "string",
              "name": "platformURL",
              "type": "string"
            },
            {
              "internalType": "bytes",
              "name": "signature",
              "type": "bytes"
            },
            {
              "internalType": "string",
              "name": "platformHandle",
              "type": "string"
            }
          ],
          "internalType": "struct veritIdentityTable.Attestation",
          "name": "attestation",
          "type": "tuple"
        }
      ],
      "name": "addAttestation",
      "outputs": [
        {
          "internalType": "bool",
          "name": "attested",
          "type": "bool"
        }
      ],
      "stateMutability": "nonpayable",
      "type": "function"
    }
  ],
  "bytecode": "0x608060405234801561001057600080fd5b5073a71a9aee3b0d8027e7a654aa7ddf8a3d882c64f5600160006101000a81548173ffffffffffffffffffffffffffffffffffffffff021916908373ffffffffffffffffffffffffffffffffffffffff160217905550611473806100756000396000f3fe608060405234801561001057600080fd5b50600436106100365760003560e01c80633069bf961461003b578063943763291461006b575b600080fd5b61005560048036038101906100509190610a66565b61009b565b6040516100629190610ebb565b60405180910390f35b61008560048036038101906100809190610a0a565b610296565b6040516100929190610ebb565b60405180910390f35b600080846040516020016100af9190610e65565b60405160208183030381529060405280519060200120905060006100f6600160009054906101000a900473ffffffffffffffffffffffffffffffffffffffff1683866104f1565b90508061010757809250505061028e565b60008060008873ffffffffffffffffffffffffffffffffffffffff1673ffffffffffffffffffffffffffffffffffffffff16815260200190815260200160002090508673ffffffffffffffffffffffffffffffffffffffff168160020160009054906101000a900473ffffffffffffffffffffffffffffffffffffffff1673ffffffffffffffffffffffffffffffffffffffff1614156101ad576000935050505061028e565b878160010190805190602001906101c5929190610648565b50868160020160006101000a81548173ffffffffffffffffffffffffffffffffffffffff021916908373ffffffffffffffffffffffffffffffffffffffff16021790555060005b865181101561024b576102398888838151811061022c5761022b611291565b5b6020026020010151610296565b5080610244906111bc565b905061020c565b507f4f5aa5a57bec7d1576467084b9dfc16abd7a90f328e0d85ccf64b003b983e07888888760405161027f93929190610f1b565b60405180910390a18193505050505b949350505050565b60008273ffffffffffffffffffffffffffffffffffffffff166000808573ffffffffffffffffffffffffffffffffffffffff1673ffffffffffffffffffffffffffffffffffffffff16815260200190815260200160002060020160009054906101000a900473ffffffffffffffffffffffffffffffffffffffff1673ffffffffffffffffffffffffffffffffffffffff1614610367576040517f08c379a000000000000000000000000000000000000000000000000000000000815260040161035e90610f60565b60405180910390fd5b6000826060015184604051602001610380929190610e27565b60405160208183030381529060405280519060200120905060006103cb600160009054906101000a900473ffffffffffffffffffffffffffffffffffffffff168386604001516104f1565b905080156104e657836000808773ffffffffffffffffffffffffffffffffffffffff1673ffffffffffffffffffffffffffffffffffffffff16815260200190815260200160002060000185600001516040516104279190610dea565b90815260200160405180910390206000820151816000019080519060200190610451929190610648565b50602082015181600101908051906020019061046e929190610648565b50604082015181600201908051906020019061048b9291906106ce565b5060608201518160030190805190602001906104a8929190610648565b509050507fdaac63c290ed712d1e9873b5de6a19e1cfe614135343309b580042e2b200b83385856040516104dd929190610e8b565b60405180910390a15b809250505092915050565b6000806104fd84610541565b90508473ffffffffffffffffffffffffffffffffffffffff166105208285610571565b73ffffffffffffffffffffffffffffffffffffffff16149150509392505050565b6000816040516020016105549190610e01565b604051602081830303815290604052805190602001209050919050565b600080600080610580856105e0565b925092509250600186828585604051600081526020016040526040516105a99493929190610ed6565b6020604051602081039080840390855afa1580156105cb573d6000803e3d6000fd5b50505060206040510351935050505092915050565b60008060006041845114610629576040517f08c379a000000000000000000000000000000000000000000000000000000000815260040161062090610f80565b60405180910390fd5b6020840151925060408401519150606084015160001a90509193909250565b82805461065490611159565b90600052602060002090601f01602090048101928261067657600085556106bd565b82601f1061068f57805160ff19168380011785556106bd565b828001600101855582156106bd579182015b828111156106bc5782518255916020019190600101906106a1565b5b5090506106ca9190610754565b5090565b8280546106da90611159565b90600052602060002090601f0160209004810192826106fc5760008555610743565b82601f1061071557805160ff1916838001178555610743565b82800160010185558215610743579182015b82811115610742578251825591602001919060010190610727565b5b5090506107509190610754565b5090565b5b8082111561076d576000816000905550600101610755565b5090565b600061078461077f84610fc5565b610fa0565b905080838252602082019050828560208602820111156107a7576107a66112fe565b5b60005b858110156107f557813567ffffffffffffffff8111156107cd576107cc6112ef565b5b8086016107da8982610922565b855260208501945060208401935050506001810190506107aa565b5050509392505050565b600061081261080d84610ff1565b610fa0565b90508281526020810184848401111561082e5761082d611303565b5b610839848285611117565b509392505050565b600061085461084f84611022565b610fa0565b9050828152602081018484840111156108705761086f611303565b5b61087b848285611117565b509392505050565b60008135905061089281611426565b92915050565b600082601f8301126108ad576108ac6112ef565b5b81356108bd848260208601610771565b91505092915050565b600082601f8301126108db576108da6112ef565b5b81356108eb8482602086016107ff565b91505092915050565b600082601f830112610909576109086112ef565b5b8135610919848260208601610841565b91505092915050565b600060808284031215610938576109376112f4565b5b6109426080610fa0565b9050600082013567ffffffffffffffff811115610962576109616112f9565b5b61096e848285016108f4565b600083015250602082013567ffffffffffffffff811115610992576109916112f9565b5b61099e848285016108f4565b602083015250604082013567ffffffffffffffff8111156109c2576109c16112f9565b5b6109ce848285016108c6565b604083015250606082013567ffffffffffffffff8111156109f2576109f16112f9565b5b6109fe848285016108f4565b60608301525092915050565b60008060408385031215610a2157610a2061130d565b5b6000610a2f85828601610883565b925050602083013567ffffffffffffffff811115610a5057610a4f611308565b5b610a5c85828601610922565b9150509250929050565b60008060008060808587031215610a8057610a7f61130d565b5b600085013567ffffffffffffffff811115610a9e57610a9d611308565b5b610aaa878288016108f4565b9450506020610abb87828801610883565b935050604085013567ffffffffffffffff811115610adc57610adb611308565b5b610ae887828801610898565b925050606085013567ffffffffffffffff811115610b0957610b08611308565b5b610b15878288016108c6565b91505092959194509250565b610b2a816110b8565b82525050565b610b41610b3c826110b8565b611205565b82525050565b610b50816110ca565b82525050565b610b5f816110d6565b82525050565b610b76610b71826110d6565b611217565b82525050565b6000610b8782611053565b610b918185611069565b9350610ba1818560208601611126565b610baa81611312565b840191505092915050565b6000610bc082611053565b610bca818561107a565b9350610bda818560208601611126565b610be381611312565b840191505092915050565b6000610bf98261105e565b610c03818561108b565b9350610c13818560208601611126565b610c1c81611312565b840191505092915050565b6000610c328261105e565b610c3c818561109c565b9350610c4c818560208601611126565b610c5581611312565b840191505092915050565b6000610c6b8261105e565b610c7581856110ad565b9350610c85818560208601611126565b80840191505092915050565b6000610c9e6001836110ad565b9150610ca982611330565b600182019050919050565b6000610cc160138361109c565b9150610ccc82611359565b602082019050919050565b6000610ce4601c836110ad565b9150610cef82611382565b601c82019050919050565b6000610d07601b836110ad565b9150610d12826113ab565b601b82019050919050565b6000610d2a60188361109c565b9150610d35826113d4565b602082019050919050565b6000610d4d601c836110ad565b9150610d58826113fd565b601c82019050919050565b60006080830160008301518482036000860152610d808282610bee565b91505060208301518482036020860152610d9a8282610bee565b91505060408301518482036040860152610db48282610b7c565b91505060608301518482036060860152610dce8282610bee565b9150508091505092915050565b610de48161110a565b82525050565b6000610df68284610c60565b915081905092915050565b6000610e0c82610cd7565b9150610e188284610b65565b60208201915081905092915050565b6000610e3282610cfa565b9150610e3e8285610c60565b9150610e4982610c91565b9150610e558284610b30565b6014820191508190509392505050565b6000610e7082610d40565b9150610e7c8284610b30565b60148201915081905092915050565b6000604082019050610ea06000830185610b21565b8181036020830152610eb28184610d63565b90509392505050565b6000602082019050610ed06000830184610b47565b92915050565b6000608082019050610eeb6000830187610b56565b610ef86020830186610ddb565b610f056040830185610b56565b610f126060830184610b56565b95945050505050565b60006060820190508181036000830152610f358186610c27565b9050610f446020830185610b21565b8181036040830152610f568184610bb5565b9050949350505050565b60006020820190508181036000830152610f7981610cb4565b9050919050565b60006020820190508181036000830152610f9981610d1d565b9050919050565b6000610faa610fbb565b9050610fb6828261118b565b919050565b6000604051905090565b600067ffffffffffffffff821115610fe057610fdf6112c0565b5b602082029050602081019050919050565b600067ffffffffffffffff82111561100c5761100b6112c0565b5b61101582611312565b9050602081019050919050565b600067ffffffffffffffff82111561103d5761103c6112c0565b5b61104682611312565b9050602081019050919050565b600081519050919050565b600081519050919050565b600082825260208201905092915050565b600082825260208201905092915050565b600082825260208201905092915050565b600082825260208201905092915050565b600081905092915050565b60006110c3826110e0565b9050919050565b60008115159050919050565b6000819050919050565b600073ffffffffffffffffffffffffffffffffffffffff82169050919050565b6000819050919050565b600060ff82169050919050565b82818337600083830152505050565b60005b83811015611144578082015181840152602081019050611129565b83811115611153576000848401525b50505050565b6000600282049050600182168061117157607f821691505b6020821081141561118557611184611262565b5b50919050565b61119482611312565b810181811067ffffffffffffffff821117156111b3576111b26112c0565b5b80604052505050565b60006111c782611100565b91507fffffffffffffffffffffffffffffffffffffffffffffffffffffffffffffffff8214156111fa576111f9611233565b5b600182019050919050565b600061121082611221565b9050919050565b6000819050919050565b600061122c82611323565b9050919050565b7f4e487b7100000000000000000000000000000000000000000000000000000000600052601160045260246000fd5b7f4e487b7100000000000000000000000000000000000000000000000000000000600052602260045260246000fd5b7f4e487b7100000000000000000000000000000000000000000000000000000000600052603260045260246000fd5b7f4e487b7100000000000000000000000000000000000000000000000000000000600052604160045260246000fd5b600080fd5b600080fd5b600080fd5b600080fd5b600080fd5b600080fd5b600080fd5b6000601f19601f8301169050919050565b60008160601b9050919050565b7f0a00000000000000000000000000000000000000000000000000000000000000600082015250565b7f61646472657373206e6f742070726573656e7400000000000000000000000000600082015250565b7f19457468657265756d205369676e6564204d6573736167653a0a333200000000600082015250565b7f566572697420506c6174666f726d204174746573746174696f6e0a0000000000600082015250565b7f696e76616c6964207369676e6174757265206c656e6774680000000000000000600082015250565b7f566572697420506c6174666f726d20526567697374726174696f6e0a00000000600082015250565b61142f816110b8565b811461143a57600080fd5b5056fea264697066735822122038fa74011f640a3cc1c4b768eb83378f3fc7554c1f064329412e497366cfc02264736f6c63430008050033",
  "immutableReferences": {},
  "source": "// SPDX-License-Identifier: MIT\npragma solidity ^0.8.0;\n\n// contract VeritTraceRecords {\n    \n//     struct Record {\n//         string signature;\n//         string inputMessage;\n//         string timeStamp;\n//         string platformIdentifier;\n//         string platformSignature;\n//         string platformMetadata;\n//     }\n\n//     mapping (string => Record) records;\n    \n//     address private owner;\n    \n//     modifier isOwner() {\n//         require(msg.sender == owner, \"Caller is not owner\");\n//         _;\n//     }\n    \n//     constructor() public {\n//         owner = tx.origin;\n//     }\n// }\n\ncontract veritIdentityTable {\n    \n    // Structure for storing the attestations\n    struct Attestation {\n        string platformIdentifier;\n        string platformURL;\n        bytes signature;\n        string platformHandle;\n    }\n    \n    // Structure for storing User information\n    struct User {\n        mapping (string => Attestation) attestations; // maps from platformIdentifier to Attestation.\n        string userType;\n        address userAddress;\n    }\n    \n    mapping (address => User) users; // maps from userAddress to User\n    \n    address private owner; // Currently is hardcoded to store an address representing Twitter's Blockchain address\n    \n    event Register(string userType, address _address, bytes signature);\n    event Attest(address _address, Attestation attestation);\n    \n    modifier isOwner() { // modifier (might come in handy later)\n        \n        require(msg.sender == owner, \"Caller is not owner\");\n        _;\n    }\n    \n    constructor() {\n        \n        owner = 0xA71A9AEe3b0d8027e7A654aA7ddf8a3D882C64F5; // hardcoded temporary public key\n    }\n    \n    // Internal functions for sign verification using ecrecover and keccak256.\n    // To get the correct sign in web3, follow the instructions as in the bottom of the contract\n    function getEthSignedMessageHash(bytes32 _messageHash) pure internal returns (bytes32) {\n\n        return keccak256(abi.encodePacked(\"\\x19Ethereum Signed Message:\\n32\", _messageHash));\n    }\n\n    function verifySign ( address _signer, bytes32 messageHash , bytes memory signature) pure internal returns (bool) {\n        \n        bytes32 ethSignedMessageHash = getEthSignedMessageHash(messageHash);\n        return recoverSigner(ethSignedMessageHash, signature) == _signer;\n    }\n\n    function recoverSigner(bytes32 _ethSignedMessageHash, bytes memory _signature) pure internal returns (address) {\n        \n        (bytes32 r, bytes32 s, uint8 v) = splitSignature(_signature);\n        return ecrecover(_ethSignedMessageHash, v, r, s);\n    }\n\n    function splitSignature(bytes memory sig) pure internal returns (bytes32 r, bytes32 s, uint8 v) {\n        require(sig.length == 65, \"invalid signature length\");\n\n        assembly {\n            // first 32 bytes, after the length prefix\n            r := mload(add(sig, 32))\n            // second 32 bytes\n            s := mload(add(sig, 64))\n            // final byte (first byte of the next 32 bytes)\n            v := byte(0, mload(add(sig, 96)))\n        }\n\n        // implicitly return (r, s, v)\n    }\n    \n    // Add an address to the mapping\n    function registerAddress (string memory userType, address _address, Attestation[] memory attestations, bytes memory signature) public returns (bool added) {\n        \n        bytes32 messageHash = keccak256(abi.encodePacked(\"Verit Platform Registration\\n\", _address)); // Hash used for sign\n        bool verify = verifySign(owner, messageHash, signature); // verify signature\n        if(!verify) return verify;\n\n        User storage user = users[_address];\n        \n        if(user.userAddress == _address) // If address already has a mapping, then it can not be directly modified, only attestations can be added\n            return false;\n            \n        user.userType = userType;\n        user.userAddress = _address;\n        \n        // add Attestations to the address\n        for(uint i = 0; i < attestations.length; ++i) {\n            addAttestation(_address, attestations[i]);\n        }\n        \n        emit Register(userType, _address, signature);\n        return verify;\n    }\n    \n    // function to add attestations to a given address. Can be called from regisetAddress and also on it own\n    function addAttestation (address _address, Attestation memory attestation) public returns (bool attested) {\n    \n        require(users[_address].userAddress == _address, \"address not present\"); // Returns an error if the address does not have a mapping already.\n        \n        bytes32 messageHash = keccak256(abi.encodePacked(\"Verit Platform Attestation\\n\", attestation.platformHandle, \"\\n\", _address)); // Hash used for sign\n        bool verify = verifySign(owner, messageHash, attestation.signature); // verify signature\n        if(verify)\n        {\n            users[_address].attestations[attestation.platformIdentifier] = attestation;\n            emit Attest(_address, attestation);\n        }\n        return verify;\n    }\n}\n\n/*\nmessage hash:\nweb3.utils.keccak256(web3.utils.encodePacked(inputs))\nPayload:\nweb3.eth.accounts.sign(messageHash, privateKey)\nweb3.eth.accounts.sign(web3.utils.keccak256(web3.utils.encodePacked(<input>), privKey)\nprivKey for owner: \n0xbcfbe70f344d492288500c017f0530a8ecd78766ad71d099e37e30ebc45242e2\n\nfor register: \nmessageHash = \n0xfca1c8a31656f98a5d6201c1484f8d6e666ffe4bee1297761c52a5a2aaa2c21e\naddress = \n0x5B38Da6a701c568545dCfcB03FcB875f56beddC4\nsign = \n0x0f776f643953603649fd845e2b81066e5efbcb7c42d87634deb3f4d503a871406713e9cdc0efdef8f27097c593e1d774578f3df34f9848fa0abdcd62209c3d331c\nto get sign, use:\nweb3.eth.accounts.sign(web3.utils.keccak256(web3.utils.encodePacked(\"Verit Platform Registration\\n\", _address), privKey)\n\n\n\naddress2=\n0xAb8483F64d9C6d1EcF9b849Ae677dD3315835cb2\nsign=\n0xb8cc4a3285ebb98d7033f1ad1300cd682f72bbae48733e201ddb6080137ad89766e613940708c467a8e472ebb6f390c8a95d35d97fec7403f26235cc4b39aef71c\nattestation = \n[\n[\"Twitter\", \"twitter.com\", \"0xc16c84364652f7b0e0b17ec3319b46110aae44865702ad3a7c85486f4b64ce3a6966a1bfe1bb41239ee151502b7281b0b82397b98d2cf28a76ecb0a1bcc57f141c\", \"atharv\"]\n]\nto get attestation sign use\nweb3.eth.accounts.sign(web3.utils.keccak256(web3.utils.encodePacked(\"Verit Platform Attestation\\n\", platformHandle + \"\\n\", _address), privKey)\n\n*/",
  "sourcePath": "/d/Projects/NBP/verit/contracts/verit.sol",
  "compiler": {
    "name": "solc",
    "version": "0.8.5+commit.a4f2e591.Emscripten.clang"
  },
  "schemaVersion": "3.4.1",
  "updatedAt": "2021-06-11T11:59:37.921Z",
  "networkType": "ethereum",
  "devdoc": {
    "kind": "dev",
    "methods": {},
    "version": 1
  },
  "userdoc": {
    "kind": "user",
    "methods": {},
    "version": 1
  }
}