{
  "contractName": "VeritTraceRecords",
  "abi": [
    {
      "inputs": [
        {
          "internalType": "address",
          "name": "_address",
          "type": "address"
        }
      ],
      "stateMutability": "nonpayable",
      "type": "constructor"
    },
    {
      "anonymous": false,
      "inputs": [
        {
          "indexed": true,
          "internalType": "address",
          "name": "userAddress",
          "type": "address"
        },
        {
          "indexed": false,
          "internalType": "bytes32",
          "name": "message",
          "type": "bytes32"
        }
      ],
      "name": "RecordAdded",
      "type": "event"
    },
    {
      "inputs": [
        {
          "components": [
            {
              "internalType": "bytes32",
              "name": "dataIndexHash",
              "type": "bytes32"
            },
            {
              "internalType": "bytes",
              "name": "signature",
              "type": "bytes"
            },
            {
              "internalType": "string",
              "name": "platformHandle",
              "type": "string"
            },
            {
              "internalType": "bytes32",
              "name": "inputMessage",
              "type": "bytes32"
            },
            {
              "internalType": "uint256",
              "name": "timeStamp",
              "type": "uint256"
            },
            {
              "internalType": "string",
              "name": "platformIdentifier",
              "type": "string"
            },
            {
              "internalType": "string",
              "name": "platformSignature",
              "type": "string"
            },
            {
              "internalType": "string",
              "name": "platformMetadata",
              "type": "string"
            }
          ],
          "internalType": "struct VeritTraceRecords.Record",
          "name": "record",
          "type": "tuple"
        }
      ],
      "name": "addRecord",
      "outputs": [
        {
          "internalType": "bool",
          "name": "added",
          "type": "bool"
        }
      ],
      "stateMutability": "nonpayable",
      "type": "function"
    },
    {
      "inputs": [
        {
          "internalType": "bytes32",
          "name": "dataIndexHash",
          "type": "bytes32"
        },
        {
          "internalType": "bytes32",
          "name": "messageHash",
          "type": "bytes32"
        },
        {
          "internalType": "string",
          "name": "platformIdentifier",
          "type": "string"
        }
      ],
      "name": "verifyRecord",
      "outputs": [
        {
          "internalType": "bool",
          "name": "correct",
          "type": "bool"
        }
      ],
      "stateMutability": "view",
      "type": "function",
      "constant": true
    }
  ],
  "bytecode": "0x60806040523480156200001157600080fd5b506040516200114738038062001147833981810160405281019062000037919062000095565b806000806101000a81548173ffffffffffffffffffffffffffffffffffffffff021916908373ffffffffffffffffffffffffffffffffffffffff160217905550506200011a565b6000815190506200008f8162000100565b92915050565b600060208284031215620000ae57620000ad620000fb565b5b6000620000be848285016200007e565b91505092915050565b6000620000d482620000db565b9050919050565b600073ffffffffffffffffffffffffffffffffffffffff82169050919050565b600080fd5b6200010b81620000c7565b81146200011757600080fd5b50565b61101d806200012a6000396000f3fe608060405234801561001057600080fd5b50600436106100365760003560e01c8063828b49571461003b578063f89c74f11461006b575b600080fd5b610055600480360381019061005091906109ec565b61009b565b6040516100629190610ca1565b60405180910390f35b6100856004803603810190610080919061097d565b6104cb565b6040516100929190610ca1565b60405180910390f35b60008060009054906101000a900473ffffffffffffffffffffffffffffffffffffffff1673ffffffffffffffffffffffffffffffffffffffff16634d6849d2336040518263ffffffff1660e01b81526004016100f79190610c18565b60206040518083038186803b15801561010f57600080fd5b505afa158015610123573d6000803e3d6000fd5b505050506040513d601f19601f8201168201806040525081019061014791906108f6565b73ffffffffffffffffffffffffffffffffffffffff163373ffffffffffffffffffffffffffffffffffffffff161461018257600090506104c6565b60008054906101000a900473ffffffffffffffffffffffffffffffffffffffff1673ffffffffffffffffffffffffffffffffffffffff1663d2deaa65338460a001516040518363ffffffff1660e01b81526004016101e1929190610c71565b60206040518083038186803b1580156101f957600080fd5b505afa15801561020d573d6000803e3d6000fd5b505050506040513d601f19601f820116820180604052508101906102319190610950565b82604001516040516020016102469190610ba1565b604051602081830303815290604052805190602001201461026a57600090506104c6565b60008260a001518360600151846000015185608001516040516020016102939493929190610bb8565b60405160208183030381529060405280519060200120905060008060009054906101000a900473ffffffffffffffffffffffffffffffffffffffff1673ffffffffffffffffffffffffffffffffffffffff1663c528d847338487602001516040518463ffffffff1660e01b815260040161030f93929190610c33565b60206040518083038186803b15801561032757600080fd5b505afa15801561033b573d6000803e3d6000fd5b505050506040513d601f19601f8201168201806040525081019061035f9190610923565b905080610371576000925050506104c6565b600084600001518560a0015160405160200161038e929190610b79565b60405160208183030381529060405280519060200120905084600160008381526020019081526020016000206000820151816000015560208201518160010190805190602001906103e092919061052e565b5060408201518160020190805190602001906103fd9291906105b4565b50606082015181600301556080820151816004015560a082015181600501908051906020019061042e9291906105b4565b5060c082015181600601908051906020019061044b9291906105b4565b5060e08201518160070190805190602001906104689291906105b4565b509050503373ffffffffffffffffffffffffffffffffffffffff167fcd8d971de15defd5d6c1776f3e45f9ad8e646ee0a82d5601a1a90796634a1a0786606001516040516104b69190610cbc565b60405180910390a2600193505050505b919050565b60008084836040516020016104e1929190610b79565b6040516020818303038152906040528051906020012090508360016000838152602001908152602001600020600301541415610521576001915050610527565b60009150505b9392505050565b82805461053a90610e35565b90600052602060002090601f01602090048101928261055c57600085556105a3565b82601f1061057557805160ff19168380011785556105a3565b828001600101855582156105a3579182015b828111156105a2578251825591602001919060010190610587565b5b5090506105b0919061063a565b5090565b8280546105c090610e35565b90600052602060002090601f0160209004810192826105e25760008555610629565b82601f106105fb57805160ff1916838001178555610629565b82800160010185558215610629579182015b8281111561062857825182559160200191906001019061060d565b5b509050610636919061063a565b5090565b5b8082111561065357600081600090555060010161063b565b5090565b600061066a61066584610cfc565b610cd7565b90508281526020810184848401111561068657610685610f19565b5b610691848285610df3565b509392505050565b60006106ac6106a784610d2d565b610cd7565b9050828152602081018484840111156106c8576106c7610f19565b5b6106d3848285610df3565b509392505050565b6000815190506106ea81610f8b565b92915050565b6000815190506106ff81610fa2565b92915050565b60008135905061071481610fb9565b92915050565b60008151905061072981610fb9565b92915050565b600082601f83011261074457610743610f0a565b5b8135610754848260208601610657565b91505092915050565b600082601f83011261077257610771610f0a565b5b8135610782848260208601610699565b91505092915050565b600061010082840312156107a2576107a1610f0f565b5b6107ad610100610cd7565b905060006107bd84828501610705565b600083015250602082013567ffffffffffffffff8111156107e1576107e0610f14565b5b6107ed8482850161072f565b602083015250604082013567ffffffffffffffff81111561081157610810610f14565b5b61081d8482850161075d565b604083015250606061083184828501610705565b6060830152506080610845848285016108e1565b60808301525060a082013567ffffffffffffffff81111561086957610868610f14565b5b6108758482850161075d565b60a08301525060c082013567ffffffffffffffff81111561089957610898610f14565b5b6108a58482850161075d565b60c08301525060e082013567ffffffffffffffff8111156108c9576108c8610f14565b5b6108d58482850161075d565b60e08301525092915050565b6000813590506108f081610fd0565b92915050565b60006020828403121561090c5761090b610f23565b5b600061091a848285016106db565b91505092915050565b60006020828403121561093957610938610f23565b5b6000610947848285016106f0565b91505092915050565b60006020828403121561096657610965610f23565b5b60006109748482850161071a565b91505092915050565b60008060006060848603121561099657610995610f23565b5b60006109a486828701610705565b93505060206109b586828701610705565b925050604084013567ffffffffffffffff8111156109d6576109d5610f1e565b5b6109e28682870161075d565b9150509250925092565b600060208284031215610a0257610a01610f23565b5b600082013567ffffffffffffffff811115610a2057610a1f610f1e565b5b610a2c8482850161078b565b91505092915050565b610a3e81610da1565b82525050565b610a4d81610db3565b82525050565b610a5c81610dbf565b82525050565b610a73610a6e82610dbf565b610e98565b82525050565b6000610a8482610d5e565b610a8e8185610d74565b9350610a9e818560208601610e02565b610aa781610f28565b840191505092915050565b6000610abd82610d69565b610ac78185610d85565b9350610ad7818560208601610e02565b610ae081610f28565b840191505092915050565b6000610af682610d69565b610b008185610d96565b9350610b10818560208601610e02565b80840191505092915050565b6000610b29600183610d96565b9150610b3482610f39565b600182019050919050565b6000610b4c601483610d96565b9150610b5782610f62565b601482019050919050565b610b73610b6e82610de9565b610ea2565b82525050565b6000610b858285610a62565b602082019150610b958284610aeb565b91508190509392505050565b6000610bad8284610aeb565b915081905092915050565b6000610bc382610b3f565b9150610bcf8287610aeb565b9150610bda82610b1c565b9150610be68286610a62565b602082019150610bf68285610a62565b602082019150610c068284610b62565b60208201915081905095945050505050565b6000602082019050610c2d6000830184610a35565b92915050565b6000606082019050610c486000830186610a35565b610c556020830185610a53565b8181036040830152610c678184610a79565b9050949350505050565b6000604082019050610c866000830185610a35565b8181036020830152610c988184610ab2565b90509392505050565b6000602082019050610cb66000830184610a44565b92915050565b6000602082019050610cd16000830184610a53565b92915050565b6000610ce1610cf2565b9050610ced8282610e67565b919050565b6000604051905090565b600067ffffffffffffffff821115610d1757610d16610edb565b5b610d2082610f28565b9050602081019050919050565b600067ffffffffffffffff821115610d4857610d47610edb565b5b610d5182610f28565b9050602081019050919050565b600081519050919050565b600081519050919050565b600082825260208201905092915050565b600082825260208201905092915050565b600081905092915050565b6000610dac82610dc9565b9050919050565b60008115159050919050565b6000819050919050565b600073ffffffffffffffffffffffffffffffffffffffff82169050919050565b6000819050919050565b82818337600083830152505050565b60005b83811015610e20578082015181840152602081019050610e05565b83811115610e2f576000848401525b50505050565b60006002820490506001821680610e4d57607f821691505b60208210811415610e6157610e60610eac565b5b50919050565b610e7082610f28565b810181811067ffffffffffffffff82111715610e8f57610e8e610edb565b5b80604052505050565b6000819050919050565b6000819050919050565b7f4e487b7100000000000000000000000000000000000000000000000000000000600052602260045260246000fd5b7f4e487b7100000000000000000000000000000000000000000000000000000000600052604160045260246000fd5b600080fd5b600080fd5b600080fd5b600080fd5b600080fd5b600080fd5b6000601f19601f8301169050919050565b7f0a00000000000000000000000000000000000000000000000000000000000000600082015250565b7f5665726974205472616365205265636f7264730a000000000000000000000000600082015250565b610f9481610da1565b8114610f9f57600080fd5b50565b610fab81610db3565b8114610fb657600080fd5b50565b610fc281610dbf565b8114610fcd57600080fd5b50565b610fd981610de9565b8114610fe457600080fd5b5056fea2646970667358221220457b6e22ef379ca7df426b4f815edefea212d8bc107a8d8dc6b7daef256ca46a64736f6c63430008050033",
  "immutableReferences": {},
  "source": "// SPDX-License-Identifier: MIT\npragma solidity ^0.8.0;\n\nimport \"./VeritIdentityTable.sol\";\n\ncontract VeritTraceRecords {\n    \n    // Structure for storing records\n    struct Record {\n        bytes32 dataIndexHash;\n        bytes signature;\n        string platformHandle;\n        bytes32 inputMessage;\n        uint256 timeStamp;\n        string platformIdentifier;\n        string platformSignature;\n        string platformMetadata;\n    }\n    \n    // Identity table\n    VeritIdentityTable veritIdentityTable;\n    \n    event RecordAdded(address indexed userAddress, bytes32 message);\n    // event ErrorLog(string reason);\n    \n    // maps from Hash(dataIndexHash + platformIdentifier) => Record\n    mapping (bytes32 => Record) records;\n    \n    // Initialize with an existing veritIdentityTable contract\n    constructor(address _address) {\n        veritIdentityTable = VeritIdentityTable(_address);\n    }\n    \n    // Adds a record to the mapping\n    // The address is taken from msg.sender\n    function addRecord (Record memory record) public returns (bool added) {\n        \n        if(msg.sender != veritIdentityTable.getUserAddress(msg.sender)) {\n            // emit ErrorLog(\"Message Sender not a registered address\");\n            return false;\n        }\n        \n        if (keccak256(abi.encodePacked(record.platformHandle)) != veritIdentityTable.getPlatformHandleHash(msg.sender, record.platformIdentifier)) {\n            // emit ErrorLog(\"Platform Handle not attested\");\n            return false;\n        }\n        \n        bytes32 messageHash = keccak256(abi.encodePacked(\"Verit Trace Records\\n\", record.platformIdentifier, \"\\n\", record.inputMessage, record.dataIndexHash, record.timeStamp));\n        bool verify = veritIdentityTable.verifySign(msg.sender, messageHash, record.signature);\n        \n        if(!verify) {\n            // emit ErrorLog(abi.encodePacked(\"Verit Trace Records\\n\", record.platformIdentifier, \"\\n\", record.inputMessage, record.dataIndexHash, record.timeStamp));\n            // emit ErrorLog(\"Signature not verified\");\n            return false;\n        }\n        \n        bytes32 index = keccak256(abi.encodePacked(record.dataIndexHash, record.platformIdentifier));\n        records[index] = record;\n        emit RecordAdded(msg.sender, record.inputMessage);\n        return true;\n    }\n    \n    // Used to verify an alread added record\n    function verifyRecord (bytes32 dataIndexHash, bytes32 messageHash, string memory platformIdentifier) public view returns (bool correct) {\n        bytes32 index = keccak256(abi.encodePacked(dataIndexHash, platformIdentifier));\n        if(records[index].inputMessage == messageHash)\n            return true;\n        return false;\n    }\n}\n\n/*\n\naddress2= \n0xAb8483F64d9C6d1EcF9b849Ae677dD3315835cb2\nprivKey = \n7e5bfb82febc4c2c8529167104271ceec190eafdca277314912eaabdb67c6e5f\n\nrecord:\nbytes32 dataIndexHash;\n0xb10e2d527612073b26eecdfd717e6a320cf44b4afac2b0732d9fcbe2b7fa0cf6\nbytes signature;\n0xd0f894d264e782274071aa79663660153570ee9bca0192010aa573879ad092cf6f67d39c816ce923273643e5be1815c880aca00621c15709ea260e649c319a161c\nuse:\nweb3.eth.accounts.sign(web3.utils.soliditySha3(web3.utils.encodePacked(\"Verit Trace Records\\n\", platformIdentifier + \"\\n\", inputMessage, dataIndexHash, timeStamp)), privKey)\n\nstring platformHandle;\n\"atharv\"\nbytes32 inputMessage;\n0xcedf45072aa31710694cc8d8ff2f1697900077d7ebba2622d600771f1104f101\nuint256 timeStamp;\n123456\nstring platformIdentifier;\n\"Twitter\"\nstring platformSignature;\n\"12\"\nstring platformMetadata;\n\"12\"\n\n[ \"0xb10e2d527612073b26eecdfd717e6a320cf44b4afac2b0732d9fcbe2b7fa0cf6\", \"0x78c4d8bb06495815c80649dff9b1c970e1ca32243841c1b469d408af8f01d7fc521c8b041fd97d455fd405682b6065c6cf1dd1bd29c76a19b9f29792158c99a41b\", \"atharv\", \"0xcedf45072aa31710694cc8d8ff2f1697900077d7ebba2622d600771f1104f101\", 123456, \"Twitter\", \"12\", \"12\"]\n*/",
  "sourcePath": "/d/Projects/NBP/ssi-verit/contracts/contracts/VeritTraceRecords.sol",
  "compiler": {
    "name": "solc",
    "version": "0.8.5+commit.a4f2e591.Emscripten.clang"
  },
  "schemaVersion": "3.4.1",
  "updatedAt": "2021-06-15T15:07:09.156Z",
  "networkType": "ethereum",
  "devdoc": {
    "kind": "dev",
    "methods": {},
    "version": 1
  },
  "userdoc": {
    "kind": "user",
    "methods": {},
    "version": 1
  }
}