{
  "contractName": "VeritTraceRecords",
  "abi": [
    {
      "inputs": [
        {
          "internalType": "address",
          "name": "_address",
          "type": "address"
        }
      ],
      "stateMutability": "nonpayable",
      "type": "constructor"
    },
    {
      "anonymous": false,
      "inputs": [
        {
          "indexed": false,
          "internalType": "string",
          "name": "reason",
          "type": "string"
        }
      ],
      "name": "ErrorLog",
      "type": "event"
    },
    {
      "anonymous": false,
      "inputs": [
        {
          "components": [
            {
              "internalType": "bytes32",
              "name": "dataIndexHash",
              "type": "bytes32"
            },
            {
              "internalType": "bytes",
              "name": "signature",
              "type": "bytes"
            },
            {
              "internalType": "string",
              "name": "platformHandle",
              "type": "string"
            },
            {
              "internalType": "bytes32",
              "name": "inputMessage",
              "type": "bytes32"
            },
            {
              "internalType": "uint256",
              "name": "timeStamp",
              "type": "uint256"
            },
            {
              "internalType": "string",
              "name": "platformIdentifier",
              "type": "string"
            },
            {
              "internalType": "string",
              "name": "platformSignature",
              "type": "string"
            },
            {
              "internalType": "string",
              "name": "platformMetadata",
              "type": "string"
            }
          ],
          "indexed": false,
          "internalType": "struct VeritTraceRecords.Record",
          "name": "record",
          "type": "tuple"
        }
      ],
      "name": "RecordAdded",
      "type": "event"
    },
    {
      "inputs": [
        {
          "components": [
            {
              "internalType": "bytes32",
              "name": "dataIndexHash",
              "type": "bytes32"
            },
            {
              "internalType": "bytes",
              "name": "signature",
              "type": "bytes"
            },
            {
              "internalType": "string",
              "name": "platformHandle",
              "type": "string"
            },
            {
              "internalType": "bytes32",
              "name": "inputMessage",
              "type": "bytes32"
            },
            {
              "internalType": "uint256",
              "name": "timeStamp",
              "type": "uint256"
            },
            {
              "internalType": "string",
              "name": "platformIdentifier",
              "type": "string"
            },
            {
              "internalType": "string",
              "name": "platformSignature",
              "type": "string"
            },
            {
              "internalType": "string",
              "name": "platformMetadata",
              "type": "string"
            }
          ],
          "internalType": "struct VeritTraceRecords.Record",
          "name": "record",
          "type": "tuple"
        }
      ],
      "name": "addRecord",
      "outputs": [
        {
          "internalType": "bool",
          "name": "added",
          "type": "bool"
        }
      ],
      "stateMutability": "nonpayable",
      "type": "function"
    },
    {
      "inputs": [
        {
          "internalType": "bytes32",
          "name": "dataIndexHash",
          "type": "bytes32"
        },
        {
          "internalType": "bytes32",
          "name": "messageHash",
          "type": "bytes32"
        },
        {
          "internalType": "string",
          "name": "platformIdentifier",
          "type": "string"
        }
      ],
      "name": "verifyRecord",
      "outputs": [
        {
          "internalType": "bool",
          "name": "correct",
          "type": "bool"
        }
      ],
      "stateMutability": "view",
      "type": "function",
      "constant": true
    }
  ],
  "bytecode": "0x60806040523480156200001157600080fd5b50604051620014ba380380620014ba833981810160405281019062000037919062000095565b806000806101000a81548173ffffffffffffffffffffffffffffffffffffffff021916908373ffffffffffffffffffffffffffffffffffffffff160217905550506200011a565b6000815190506200008f8162000100565b92915050565b600060208284031215620000ae57620000ad620000fb565b5b6000620000be848285016200007e565b91505092915050565b6000620000d482620000db565b9050919050565b600073ffffffffffffffffffffffffffffffffffffffff82169050919050565b600080fd5b6200010b81620000c7565b81146200011757600080fd5b50565b611390806200012a6000396000f3fe608060405234801561001057600080fd5b50600436106100365760003560e01c8063828b49571461003b578063f89c74f11461006b575b600080fd5b61005560048036038101906100509190610a70565b61009b565b6040516100629190610eea565b60405180910390f35b61008560048036038101906100809190610a01565b61054f565b6040516100929190610eea565b60405180910390f35b60008060009054906101000a900473ffffffffffffffffffffffffffffffffffffffff1673ffffffffffffffffffffffffffffffffffffffff16634d6849d2336040518263ffffffff1660e01b81526004016100f79190610e61565b60206040518083038186803b15801561010f57600080fd5b505afa158015610123573d6000803e3d6000fd5b505050506040513d601f19601f82011682018060405250810190610147919061097a565b73ffffffffffffffffffffffffffffffffffffffff163373ffffffffffffffffffffffffffffffffffffffff16146101b7577ffe46ad7cf507184ab42d7a2576647d779ff7bc7f831bfbead75fbe056c1adb636040516101a690610f05565b60405180910390a16000905061054a565b60008054906101000a900473ffffffffffffffffffffffffffffffffffffffff1673ffffffffffffffffffffffffffffffffffffffff1663d2deaa65338460a001516040518363ffffffff1660e01b8152600401610216929190610eba565b60206040518083038186803b15801561022e57600080fd5b505afa158015610242573d6000803e3d6000fd5b505050506040513d601f19601f8201168201806040525081019061026691906109d4565b826040015160405160200161027b9190610dea565b60405160208183030381529060405280519060200120146102d4577ffe46ad7cf507184ab42d7a2576647d779ff7bc7f831bfbead75fbe056c1adb636040516102c390610f45565b60405180910390a16000905061054a565b60008260a001518360600151846000015185608001516040516020016102fd9493929190610e01565b60405160208183030381529060405280519060200120905060008060009054906101000a900473ffffffffffffffffffffffffffffffffffffffff1673ffffffffffffffffffffffffffffffffffffffff1663c528d847338487602001516040518463ffffffff1660e01b815260040161037993929190610e7c565b60206040518083038186803b15801561039157600080fd5b505afa1580156103a5573d6000803e3d6000fd5b505050506040513d601f19601f820116820180604052508101906103c991906109a7565b905080610410577ffe46ad7cf507184ab42d7a2576647d779ff7bc7f831bfbead75fbe056c1adb636040516103fd90610f25565b60405180910390a160009250505061054a565b600084600001518560a0015160405160200161042d929190610dc2565b604051602081830303815290604052805190602001209050846001600083815260200190815260200160002060008201518160000155602082015181600101908051906020019061047f9291906105b2565b50604082015181600201908051906020019061049c929190610638565b50606082015181600301556080820151816004015560a08201518160050190805190602001906104cd929190610638565b5060c08201518160060190805190602001906104ea929190610638565b5060e0820151816007019080519060200190610507929190610638565b509050507f8e123d1bdbf44036d18bb1d33a135eef358d7d605fa44109a1c3e04c1144f8b38560405161053a9190610f65565b60405180910390a1600193505050505b919050565b6000808483604051602001610565929190610dc2565b60405160208183030381529060405280519060200120905083600160008381526020019081526020016000206003015414156105a55760019150506105ab565b60009150505b9392505050565b8280546105be90611107565b90600052602060002090601f0160209004810192826105e05760008555610627565b82601f106105f957805160ff1916838001178555610627565b82800160010185558215610627579182015b8281111561062657825182559160200191906001019061060b565b5b50905061063491906106be565b5090565b82805461064490611107565b90600052602060002090601f01602090048101928261066657600085556106ad565b82601f1061067f57805160ff19168380011785556106ad565b828001600101855582156106ad579182015b828111156106ac578251825591602001919060010190610691565b5b5090506106ba91906106be565b5090565b5b808211156106d75760008160009055506001016106bf565b5090565b60006106ee6106e984610fac565b610f87565b90508281526020810184848401111561070a576107096111eb565b5b6107158482856110c5565b509392505050565b600061073061072b84610fdd565b610f87565b90508281526020810184848401111561074c5761074b6111eb565b5b6107578482856110c5565b509392505050565b60008151905061076e816112fe565b92915050565b60008151905061078381611315565b92915050565b6000813590506107988161132c565b92915050565b6000815190506107ad8161132c565b92915050565b600082601f8301126107c8576107c76111dc565b5b81356107d88482602086016106db565b91505092915050565b600082601f8301126107f6576107f56111dc565b5b813561080684826020860161071d565b91505092915050565b60006101008284031215610826576108256111e1565b5b610831610100610f87565b9050600061084184828501610789565b600083015250602082013567ffffffffffffffff811115610865576108646111e6565b5b610871848285016107b3565b602083015250604082013567ffffffffffffffff811115610895576108946111e6565b5b6108a1848285016107e1565b60408301525060606108b584828501610789565b60608301525060806108c984828501610965565b60808301525060a082013567ffffffffffffffff8111156108ed576108ec6111e6565b5b6108f9848285016107e1565b60a08301525060c082013567ffffffffffffffff81111561091d5761091c6111e6565b5b610929848285016107e1565b60c08301525060e082013567ffffffffffffffff81111561094d5761094c6111e6565b5b610959848285016107e1565b60e08301525092915050565b60008135905061097481611343565b92915050565b6000602082840312156109905761098f6111f5565b5b600061099e8482850161075f565b91505092915050565b6000602082840312156109bd576109bc6111f5565b5b60006109cb84828501610774565b91505092915050565b6000602082840312156109ea576109e96111f5565b5b60006109f88482850161079e565b91505092915050565b600080600060608486031215610a1a57610a196111f5565b5b6000610a2886828701610789565b9350506020610a3986828701610789565b925050604084013567ffffffffffffffff811115610a5a57610a596111f0565b5b610a66868287016107e1565b9150509250925092565b600060208284031215610a8657610a856111f5565b5b600082013567ffffffffffffffff811115610aa457610aa36111f0565b5b610ab08482850161080f565b91505092915050565b610ac281611073565b82525050565b610ad181611085565b82525050565b610ae081611091565b82525050565b610aef81611091565b82525050565b610b06610b0182611091565b61116a565b82525050565b6000610b178261100e565b610b218185611024565b9350610b318185602086016110d4565b610b3a816111fa565b840191505092915050565b6000610b508261100e565b610b5a8185611035565b9350610b6a8185602086016110d4565b610b73816111fa565b840191505092915050565b6000610b8982611019565b610b938185611046565b9350610ba38185602086016110d4565b610bac816111fa565b840191505092915050565b6000610bc282611019565b610bcc8185611057565b9350610bdc8185602086016110d4565b610be5816111fa565b840191505092915050565b6000610bfb82611019565b610c058185611068565b9350610c158185602086016110d4565b80840191505092915050565b6000610c2e600183611068565b9150610c398261120b565b600182019050919050565b6000610c51601483611068565b9150610c5c82611234565b601482019050919050565b6000610c74602783611057565b9150610c7f8261125d565b604082019050919050565b6000610c97601683611057565b9150610ca2826112ac565b602082019050919050565b6000610cba601c83611057565b9150610cc5826112d5565b602082019050919050565b600061010083016000830151610ce96000860182610ad7565b5060208301518482036020860152610d018282610b0c565b91505060408301518482036040860152610d1b8282610b7e565b9150506060830151610d306060860182610ad7565b506080830151610d436080860182610d9c565b5060a083015184820360a0860152610d5b8282610b7e565b91505060c083015184820360c0860152610d758282610b7e565b91505060e083015184820360e0860152610d8f8282610b7e565b9150508091505092915050565b610da5816110bb565b82525050565b610dbc610db7826110bb565b611174565b82525050565b6000610dce8285610af5565b602082019150610dde8284610bf0565b91508190509392505050565b6000610df68284610bf0565b915081905092915050565b6000610e0c82610c44565b9150610e188287610bf0565b9150610e2382610c21565b9150610e2f8286610af5565b602082019150610e3f8285610af5565b602082019150610e4f8284610dab565b60208201915081905095945050505050565b6000602082019050610e766000830184610ab9565b92915050565b6000606082019050610e916000830186610ab9565b610e9e6020830185610ae6565b8181036040830152610eb08184610b45565b9050949350505050565b6000604082019050610ecf6000830185610ab9565b8181036020830152610ee18184610bb7565b90509392505050565b6000602082019050610eff6000830184610ac8565b92915050565b60006020820190508181036000830152610f1e81610c67565b9050919050565b60006020820190508181036000830152610f3e81610c8a565b9050919050565b60006020820190508181036000830152610f5e81610cad565b9050919050565b60006020820190508181036000830152610f7f8184610cd0565b905092915050565b6000610f91610fa2565b9050610f9d8282611139565b919050565b6000604051905090565b600067ffffffffffffffff821115610fc757610fc66111ad565b5b610fd0826111fa565b9050602081019050919050565b600067ffffffffffffffff821115610ff857610ff76111ad565b5b611001826111fa565b9050602081019050919050565b600081519050919050565b600081519050919050565b600082825260208201905092915050565b600082825260208201905092915050565b600082825260208201905092915050565b600082825260208201905092915050565b600081905092915050565b600061107e8261109b565b9050919050565b60008115159050919050565b6000819050919050565b600073ffffffffffffffffffffffffffffffffffffffff82169050919050565b6000819050919050565b82818337600083830152505050565b60005b838110156110f25780820151818401526020810190506110d7565b83811115611101576000848401525b50505050565b6000600282049050600182168061111f57607f821691505b602082108114156111335761113261117e565b5b50919050565b611142826111fa565b810181811067ffffffffffffffff82111715611161576111606111ad565b5b80604052505050565b6000819050919050565b6000819050919050565b7f4e487b7100000000000000000000000000000000000000000000000000000000600052602260045260246000fd5b7f4e487b7100000000000000000000000000000000000000000000000000000000600052604160045260246000fd5b600080fd5b600080fd5b600080fd5b600080fd5b600080fd5b600080fd5b6000601f19601f8301169050919050565b7f0a00000000000000000000000000000000000000000000000000000000000000600082015250565b7f5665726974205472616365205265636f7264730a000000000000000000000000600082015250565b7f4d6573736167652053656e646572206e6f74206120726567697374657265642060008201527f6164647265737300000000000000000000000000000000000000000000000000602082015250565b7f5369676e6174757265206e6f7420766572696669656400000000000000000000600082015250565b7f506c6174666f726d2048616e646c65206e6f7420617474657374656400000000600082015250565b61130781611073565b811461131257600080fd5b50565b61131e81611085565b811461132957600080fd5b50565b61133581611091565b811461134057600080fd5b50565b61134c816110bb565b811461135757600080fd5b5056fea2646970667358221220ccaec8432ff13f829885cd6935fabb95ef94764655686e2c4a885e6f28259c7464736f6c63430008050033",
  "immutableReferences": {},
  "source": "// SPDX-License-Identifier: MIT\npragma solidity ^0.8.0;\n\nimport \"./VeritIdentityTable.sol\";\n\ncontract VeritTraceRecords {\n    \n    // Structure for storing records\n    struct Record {\n        bytes32 dataIndexHash;\n        bytes signature;\n        string platformHandle;\n        bytes32 inputMessage;\n        uint256 timeStamp;\n        string platformIdentifier;\n        string platformSignature;\n        string platformMetadata;\n    }\n    \n    // Identity table\n    VeritIdentityTable veritIdentityTable;\n    \n    event RecordAdded(Record record);\n    event ErrorLog(string reason);\n    \n    // maps from Hash(dataIndexHash + platformIdentifier) => Record\n    mapping (bytes32 => Record) records;\n    \n    // Initialize with an existing veritIdentityTable contract\n    constructor(address _address) {\n        veritIdentityTable = VeritIdentityTable(_address);\n    }\n    \n    // Adds a record to the mapping\n    // The address is taken from msg.sender\n    function addRecord (Record memory record) public returns (bool added) {\n        \n        if(msg.sender != veritIdentityTable.getUserAddress(msg.sender)) {\n            emit ErrorLog(\"Message Sender not a registered address\");\n            return false;\n        }\n        \n        if (keccak256(abi.encodePacked(record.platformHandle)) != veritIdentityTable.getPlatformHandleHash(msg.sender, record.platformIdentifier)) {\n            emit ErrorLog(\"Platform Handle not attested\");\n            return false;\n        }\n        \n        bytes32 messageHash = keccak256(abi.encodePacked(\"Verit Trace Records\\n\", record.platformIdentifier, \"\\n\", record.inputMessage, record.dataIndexHash, record.timeStamp));\n        bool verify = veritIdentityTable.verifySign(msg.sender, messageHash, record.signature);\n        \n        if(!verify) {\n            // emit ErrorLog(abi.encodePacked(\"Verit Trace Records\\n\", record.platformIdentifier, \"\\n\", record.inputMessage, record.dataIndexHash, record.timeStamp));\n            emit ErrorLog(\"Signature not verified\");\n            return false;\n        }\n        \n        bytes32 index = keccak256(abi.encodePacked(record.dataIndexHash, record.platformIdentifier));\n        records[index] = record;\n        emit RecordAdded(record);\n        return true;\n    }\n    \n    // Used to verify an alread added record\n    function verifyRecord (bytes32 dataIndexHash, bytes32 messageHash, string memory platformIdentifier) public view returns (bool correct) {\n        bytes32 index = keccak256(abi.encodePacked(dataIndexHash, platformIdentifier));\n        if(records[index].inputMessage == messageHash)\n            return true;\n        return false;\n    }\n}\n\n/*\n\naddress2= \n0xAb8483F64d9C6d1EcF9b849Ae677dD3315835cb2\nprivKey = \n7e5bfb82febc4c2c8529167104271ceec190eafdca277314912eaabdb67c6e5f\n\nrecord:\nbytes32 dataIndexHash;\n0xb10e2d527612073b26eecdfd717e6a320cf44b4afac2b0732d9fcbe2b7fa0cf6\nbytes signature;\n0xd0f894d264e782274071aa79663660153570ee9bca0192010aa573879ad092cf6f67d39c816ce923273643e5be1815c880aca00621c15709ea260e649c319a161c\nuse:\nweb3.eth.accounts.sign(web3.utils.soliditySha3(web3.utils.encodePacked(\"Verit Trace Records\\n\", platformIdentifier + \"\\n\", inputMessage, dataIndexHash, timeStamp)), privKey)\n\nstring platformHandle;\n\"atharv\"\nbytes32 inputMessage;\n0xcedf45072aa31710694cc8d8ff2f1697900077d7ebba2622d600771f1104f101\nuint256 timeStamp;\n123456\nstring platformIdentifier;\n\"Twitter\"\nstring platformSignature;\n\"12\"\nstring platformMetadata;\n\"12\"\n\n[ \"0xb10e2d527612073b26eecdfd717e6a320cf44b4afac2b0732d9fcbe2b7fa0cf6\", \"0x78c4d8bb06495815c80649dff9b1c970e1ca32243841c1b469d408af8f01d7fc521c8b041fd97d455fd405682b6065c6cf1dd1bd29c76a19b9f29792158c99a41b\", \"atharv\", \"0xcedf45072aa31710694cc8d8ff2f1697900077d7ebba2622d600771f1104f101\", 123456, \"Twitter\", \"12\", \"12\"]\n*/",
  "sourcePath": "/d/Projects/NBP/ssi-verit/contracts/contracts/VeritTraceRecords.sol",
  "compiler": {
    "name": "solc",
    "version": "0.8.5+commit.a4f2e591.Emscripten.clang"
  },
  "schemaVersion": "3.4.1",
  "updatedAt": "2021-06-13T05:09:45.953Z",
  "networkType": "ethereum",
  "devdoc": {
    "kind": "dev",
    "methods": {},
    "version": 1
  },
  "userdoc": {
    "kind": "user",
    "methods": {},
    "version": 1
  }
}